:020000040800F2
:10B000002807002045B100084DB100084FB10008E5
:10B0100051B1000853B1000855B10008000000000C
:10B0200000000000000000000000000057B1000810
:10B0300059B10008000000005BB10008B1C1000870
:10B040005FB100085FB100085FB100085FB10008A0
:10B050005FB100085FB100081BB700086FB70008B8
:10B0600075B700087BB7000881B7000825B5000850
:10B070003DB500085FB100085FB100085FB100088E
:10B080005FB100085FB100085FB100085FB1000860
:10B090005FB100085FB100085FB1000887B7000822
:10B0A0005FB100085FB100085FB100085FB1000840
:10B0B0005FB1000805C200085FB100085FB1000879
:10B0C0005FB100085FB100085FB100085FB1000820
:10B0D0005FB10008F1D700085FB1000849D8000847
:10B0E00021B700085FB100085FB100085FB1000838
:10B0F0005FB100085FB100085FB100085FB10008F0
:10B100005FB100085FB100085FB100085FB10008DF
:10B110004DC60008A5C600085FB100085FB1000871
:10B120005FB100085FB100085FB100085FB10008BF
:10B13000DFF80CD000F0B0F800480047FDDA000856
:10B14000280700200648804706480047FEE7FEE73C
:10B15000FEE7FEE7FEE7FEE7FEE7FEE7FEE7FEE7C7
:10B16000B5C1000831B1000830B480EA010202F034
:10B17000004530F0004221F0004013D090B1C30DE3
:10B18000D40DC2F31601C0F31600E41A41F4000115
:10B1900040F400027D34914201D3641C00E0490078
:10B1A000002C02DA30BC002070474FF4000000236E
:10B1B000914201D3891A034340084FEA4101F7D174
:10B1C00051B1914202D14FF0004105E002D24FF05F
:10B1D000010101E06FF0010103EBC450284430BCD1
:10B1E00000F022B8C10F80EAE0700844CA07962335
:10B1F000002100F022B800F0004220F00040C10D14
:10B20000C0F3160040F400007F2901DA00207047E7
:10B21000962903DCC1F19601C84001E096398840C7
:10B22000002AF4D0404270470029A8BF7047401C54
:10B23000490008BF20F00100704710B4B0FA80FC4C
:10B2400000FA0CF050EA010404BF10BC704749B189
:10B25000CCF1200421FA04F411FA0CF118BF0121F9
:10B2600021430843A3EB0C01CB1D4FEA00614FEAD9
:10B27000102042BF002010BC704700EBC3501044A8
:10B280000029A4BF10BC7047401C490008BF20F033
:10B29000010010BC70470000064C074D06E0E06856
:10B2A00040F0010394E8070098471034AC42F6D30D
:10B2B000FFF742FFD8E10008F8E1000870B58C18EC
:10B2C00010F8015B15F0070301D110F8013B2A11BA
:10B2D00006D110F8012B03E010F8016B01F8016BA7
:10B2E0005B1EF9D12B0705D40023521E0DD401F8A3
:10B2F000013BFAE710F8013BCB1A921C03E013F86C
:10B30000015B01F8015B521EF9D5A142D8D30020A0
:10B3100070BD0029816802D041F0010101E021F0F7
:10B320000101816070470029816802D041F4807179
:10B3300001E021F480718160704701460020896836
:10B34000490700D501207047014600208968090798
:10B3500000D501207047000010B542680E4B0C79F3
:10B360001A400B6842EA04221343436083680B4A85
:10B370001340D1E9024222434C7943EA44031A4381
:10B380008260C26A097C22F47002491EC9B242EA94
:10B390000151C16210BD0000FFFEF0FFFDF7F1FF9B
:10B3A00070B5072409290AD9C568A1F10A0606EB78
:10B3B0004606B440A543B3401D43C56007E0056998
:10B3C00001EB4106B440A543B3401D4305611F2373
:10B3D000072A09D2446B521E02EB820293409C431F
:10B3E00091400C43446370BD0D2A09D2046BD21FF7
:10B3F00002EB820293409C4391400C43046370BD76
:10B40000C46A0D3A02EB820293409C4391400C4384
:10B41000C46270BD816841F00801816070470029F5
:10B42000816802D041F4A00101E021F4A001816013
:10B430007047816841F004018160704770B523490D
:10B4400000220B460D790324DB78052D09D2DFE8B5
:10B4500005F003090E121D00FF2801D1012004E0B0
:10B46000CA7070BDFF2808D10220087170BD20B9D4
:10B47000CA700C7170BD032801D00A71F0E7DB1CA3
:10B480008C71CB70042008714A7170BD8E790F4D9C
:10B490004C793435761EB44206DA28551844C87003
:10B4A00004F101044C7170BDFDD16FEA0303DBB2FE
:10B4B000CB70834206D1287820B96878C871086BB0
:10B4C000401C0863CA704A710A7170BD04010020F3
:10B4D00030B51048427801788A421AD00E4A136873
:10B4E00043F480431360C1EBC10202EB42040B4BF7
:10B4F0000B4AE5186D1C95621B5D1362D36943F01E
:10B500000103D361491CC9B20170142901D1002182
:10B51000017030BDDB0000200C18014060010020EC
:10B520000000024010B5022000F0AAF8002804D064
:10B53000BDE81040012000F019B810BD094810B551
:10B54000016889060DD510214160C16921F0010112
:10B55000C161642002F041F90348016821F480418F
:10B56000016010BD000002400C180140C10002D56E
:10B57000024908607047024948607047040402406D
:10B58000000002400029016802D041F0010102E000
:10B590004FF6FE72114001607047000001684FF6DF
:10B5A000FE72114001600021016041608160C16054
:10B5B0003149314A0839904203D1486840F00F00C0
:10B5C00006E02D4A1432904204D1486840F0F00061
:10B5D00048607047284A2832904203D1486840F4B6
:10B5E0007060F5E7244A3C32904203D1486840F449
:10B5F0007040EDE7204A5032904203D1486840F451
:10B600007020E5E71C4A6432904203D1486840F458
:10B610007000DDE7184A7832904203D1486840F064
:10B620007060D5E7154A111F904203D1086840F0B9
:10B630000F0006E0114A1432904204D1086840F02D
:10B64000F000086070470D4A2832904203D1086824
:10B6500040F47060F5E7094A3C32904203D1086833
:10B6600040F47040EDE7054A50329042EAD1086854
:10B6700040F47020E5E700000800024008040240A2
:10B6800001460020CA0001D5034A00E0034A1268BF
:10B690000A4200D00120704700040240000002402E
:10B6A000002A026801D00A4300E08A430260704722
:10B6B00030B5036847F6F07293430C6A8A682243F8
:10B6C000D1E904452C4322438C692243CC692243AF
:10B6D0004C6A22438C6A22431A430260CA68426061
:10B6E0000A6882604968C16030BD4FF4FA5206E0D2
:10B6F000401E80B20021491C89B29142FBD3002830
:10B70000F6D1704706E0401E80B20021491C89B284
:10B710000829FBD30028F6D17047012000F068B853
:10B7200010B54FF48064204600F052F8C8B96400A8
:10B73000204600F04DF8A0B96400204600F048F81B
:10B7400078B96400204600F043F850B96400204600
:10B7500000F03EF828B96400204600F039F80028CF
:10B7600004D02046BDE8104000F042B810BD0220D1
:10B7700000F03EB8042000F03BB8082000F038B8D4
:10B78000102000F035B810B5202000F021F808B1E5
:10B79000202018E0402000F01BF808B1402012E003
:10B7A000802000F015F808B180200CE04FF4807480
:10B7B000204600F00DF828B96400204600F008F893
:10B7C000002804D02046BDE8104000F011B810BD9C
:10B7D000064A014600201268044B0A4014331B68D5
:10B7E0000B4202D0002A00D0012070470004014023
:10B7F00010B504460348016809B12046884702484D
:10B80000046010BDD40000201404014070B509206C
:10B8100000F0AEFF534C20620A2000F0A9FF6062E6
:10B820000B2000F0A5FFA0620C2000F0A1FFE06259
:10B83000052000F09DFF2061072000F099FFA06126
:10B84000226A4FF47A718A420ADA636A8B4216DA04
:10B85000A36A8B4220DAE36A8B4227DA002070BDAC
:10B860008A420ADD636A8B4227DAA36A8B4256DA80
:10B87000E36A8B4241DA012070BD8A421BDA636AB7
:10B880008B4207DDA36A8B4241DAE36A8B4246DAD8
:10B89000022070BD8B4237DAA36A8B4204DDE36A73
:10B8A0008B421DDA032070BD8B4216DAE36A8B42AD
:10B8B00035DD042070BD8A420ADD636A8B4216DDE5
:10B8C000A36A8B422BDAE36A8B4228DA052070BD2B
:10B8D0008A420ADA636A8B4216DAA36A8B421EDD59
:10B8E000E36A8B421BDD062070BD8A420ADD636A73
:10B8F0008B4214DAA36A8B4211DAE36A8B420EDDC3
:10B90000072070BD8A420ADA636A8B4207DDA36AA8
:10B910008B4204DDE36A8B4201DA082070BD2569A1
:10B920004FF4F0739D420CDD8A420ADD656A8D4258
:10B9300007DDA56A8D4204DDE56A8D4201DD09203F
:10B9400070BD98420CDD8A420ADD606A884207DDDC
:10B95000A06A884204DDE06A884201DD0A2070BDE9
:10B96000662070BD0000002010B5012000F000FF2F
:10B97000264C2060022000F0FBFE6060032000F0F7
:10B98000F7FEA060042000F0F3FEE060052000F068
:10B99000EFFE2061216864290ADD6068642819DDF2
:10B9A000A068642822DDE068642828DD002010BD3E
:10B9B0000FDA6168642927DDA168642924DDE16864
:10B9C000642921DDB0F57A7F01DD0B2010BD012057
:10B9D00010BD19DD6068642807DAA068642813DDEB
:10B9E000E068642810DD022010BD0DDDA068642829
:10B9F00004DAE068642807DD032010BD04DDE06898
:10BA0000642801DA042010BD672010BD000000206A
:10BA100010B5012000F0ACFE944C2060022000F034
:10BA2000A7FE6060032000F0A3FEA060042000F0E9
:10BA30009FFEE060052000F09BFE2061062000F0E4
:10BA400097FE6061072000F093FEA061082000F0DF
:10BA50008FFEE061A2684FF47A718A4212DA63685D
:10BA60008B420FDDE3688B420CDD2369962B1EDDD4
:10BA70006369962B1BDAA369962B18DAB42816DAB9
:10BA8000012010BDE3688B4211DA23688B420EDD82
:10BA90008A4222DD2369962B1FDA6369962B1CDD0F
:10BAA000A369962B19DAB42817DA022010BD23688F
:10BAB0008B4212DA63688B420FDDE3688B4223DD31
:10BAC0002369962B20DA6369962B1DDAA369962BDE
:10BAD0001ADDB42818DA032010BD63688B4211DA2E
:10BAE00023688B421FDD8A4232DD2369962B1CDAE4
:10BAF0006369962B19DAA369962B16DAB42814DD3C
:10BB0000042010BD8B420EDD8A421EDD2369962B78
:10BB10000BDD6369962B08DAA369962B05DAB42846
:10BB200003DD052010BD8A420FDDE3688B420CDD8A
:10BB30002369962B09DD6369962B06DDA369962B95
:10BB400003DAB42801DA062010BD23688B421FDD1A
:10BB5000E3688B420CDD2369962B09DA6369962B27
:10BB600006DDA369962B03DDB42801DA072010BD9A
:10BB700063688B420CDD2369962B09DA6369962B87
:10BB800014DAA369962B63DDB42861DD082010BDAB
:10BB90002369962B09DD6369962B12DAA369962B2C
:10BBA00031DDB42820DA092010BD09DA6369962B4B
:10BBB00029DDA369962B1FDAB42824DD0A2010BDE5
:10BBC00016DD6369962B0BDDA369962B03DAB42887
:10BBD00019DD0B2010BD16DDB42814DA0C2010BDC1
:10BBE00011DAA369962B0EDDB4280CDD0D2010BDF3
:10BBF00009DA6369962B06DDA369962B03DDB42869
:10BC000001DD0E2010BD23688B4214DA63688B427D
:10BC100007DA2369962B04DA6369962B01DA0F2081
:10BC200010BDE3688B4206DA2369962B03DAB42849
:10BC300001DA102010BD63688B4209DA8A4213DAF8
:10BC40006269962A06DAA269962A03DA112010BDE3
:10BC50008A4209DAE2688A4206DAA169962903DA99
:10BC6000B42801DA122010BD652010BD00000020AC
:10BC700010B58A0721F003040649130F21440F224F
:10BC80008C689A4094438C608A68984002438A602A
:10BC900010BD000000000140F0B5CA78002502F098
:10BCA0000F03D20601D58A7813430A784FF00F0E9E
:10BCB00012F0FF0F4FF001021CD004680F8802FA47
:10BCC00005F63740B74211D14FEA850C0EFA0CF752
:10BCD00024EA070703FA0CF43C43CF78282F02D05C
:10BCE000482F02D002E0466100E006616D1C082D7D
:10BCF000E4D304600C88FF2C1ED944685FF0000672
:10BD000006F1080702FA07F50F882F40AF420FD15E
:10BD10004FEA860C0EFA0CF7BC4303FA0CF73C43CF
:10BD2000CF78282F00D14561CF78482F00D1056109
:10BD3000761C082EE4D34460F0BD0000F0B5144C2E
:10BD4000002801DAE36900E06368420D120185B260
:10BD5000C0F301579540C0F30346032F05D0C2023C
:10BD60000AD50322B240934307E023F07062636870
:10BD700023F07063636002E0AB4343F0706201B193
:10BD80002A43002801DAE261F0BD6260F0BD0000E4
:10BD9000000001404161704770B5154A0E464FF4EE
:10BDA00080740146146000BF00BF00BF4FF40070F4
:10BDB000106000BF00BF00BF4FF400601060431070
:10BDC000136000BF00BF00BF094D2D1F286000BFDA
:10BDD00000BF00BF084600F025F900BF00BF00BF4C
:10BDE000304600F01FF900BF00BF00BF2C6070BDDF
:10BDF0001414014030B511494FF480750D6000BF37
:10BE000000BF00BF0D4C4FF40072241F226000BF22
:10BE100000BF00BF4FF400620A6053100B6000BF08
:10BE200000BF00BF226000BF00BF00BF00F0FAF8F3
:10BE300000BF00BF00BF256030BD000014140140EA
:10BE400008B50121102000F08DF80121202000F01C
:10BE500089F80D494FF48070086010208DF80300B8
:10BE600003208DF80200C020ADF8000069460748A5
:10BE7000FFF712FF4FF47060ADF80000024869460A
:10BE80001038FFF709FF08BD1014014000100140F1
:10BE900070B50F23C47801780122F4B1144C2468E2
:10BEA000457804F4E064C4F5E064240AC4F10406AF
:10BEB000E3408478B5401C402C4301F1E02123018C
:10BEC00081F80034007800F01F018A4040098000AA
:10BED00000F1E020C0F8002170BD01F01F00824099
:10BEE0004809800000F1E020C0F8802170BD00000A
:10BEF0000CED00E002490843024908607047000069
:10BF00000000FA050CED00E0024A1140014302482E
:10BF10000160704780FFFF1F08ED00E0044A002920
:10BF2000516901D0014300E0814351617047000035
:10BF300000100240044A0029D16901D0014300E009
:10BF40008143D1617047000000100240044A00297B
:10BF5000116901D0014300E0814311617047000085
:10BF600000100240044A0029916901D0014300E019
:10BF7000814391617047000000100240044A00298B
:10BF8000D16801D0014300E08143D16070470000D7
:10BF90000010024030B51F494A6812F00C031E4AD7
:10BFA00003D0042B01D0082B21D002604A680F2354
:10BFB0001A4C03EA1212A35C0268DA4042604B6832
:10BFC000072505EA1323E35C22FA03F383604B6839
:10BFD00005EAD323E35CDA40C2604968032303EA3D
:10BFE0009131231F595CB2FBF1F1016130BD4A6808
:10BFF0004B6802F470124FF0020413F4803F04EB1C
:10C00000924202D04B689B0301D5054B00E0024BE6
:10C010005A43CAE70010024000127A007400002060
:10C0200000093D0070B50D4B00211C15DA141D1FD1
:10C030001A60060601D52C6000E01C6000BF00BF3E
:10C0400000BF2A604006000E00BF00BF00BF491CB1
:10C05000C9B20829ECD32A602C6070BD14140140C9
:10C060000CB50021264801910091026842F480320B
:10C0700002604FF4A063026802F400320092019A59
:10C08000521C0192009A12B9019A9A42F3D10268A5
:10C09000920333D5012100911A490A6842F0100237
:10C0A0000A600A6822F003020A600A6842F002028B
:10C0B0000A604168416041684160416841F48061C3
:10C0C0004160416821F47C114160416841F4E8110C
:10C0D0004160016841F08071016001688901FCD50F
:10C0E000416821F003014160416841F00201416073
:10C0F0004168C1F381010229FAD10CBD00910CBD48
:10C10000001002400020024070B50F2000F030FB0C
:10C11000264C2063012000F01FFBA0B30025052062
:10C1200000F01AFB05430220656400F015FB58B3CC
:10C130000025062000F010FB05430320A56400F055
:10C140000BFB30B30025072000F006FB054304205D
:10C15000E56400F001FBF0B10025082000F0FCFAD6
:10C1600005432565E16C606C0844A16C28440844D3
:10C170006065216BA1F2D172B2F5C77F0FD802289A
:10C180000BDB002070BD00E001E00125C7E70125C1
:10C19000CFE70125D7E70125DFE70120F2E7B1F579
:10C1A000FA6F01DC0320EDE70420EBE7000000203C
:10C1B000FFF78EB90F4810B5016841F00101016029
:10C1C00041680D4A1140416001680C4A114001600C
:10C1D000016821F480210160416821F4FE01416081
:10C1E0004FF41F018160FFF73BFF05494FF00060EE
:10C1F000086010BD001002400000FFF8FFFFF6FECF
:10C2000008ED00E000F0F6BFC94301827047002945
:10C21000018802D041F0010101E021F0010101801B
:10C220007047002930F8441F02D041F4004101E07A
:10C23000C1F30E01018070474B4910B5884202D10D
:10C240000121C41486E0B0F1804F09D047498842EB
:10C250000DD101210220FFF779FE0021022064E0C8
:10C2600001210846FFF772FE002101205DE04049F0
:10C27000884206D101210420FFF768FE0021042036
:10C2800053E03C49884206D101210820FFF75EFEB9
:10C290000021082049E03849884206D101211020B8
:10C2A000FFF754FE002110203FE03449884206D1B8
:10C2B00001212020FFF74AFE0021202035E03049EF
:10C2C000884202D10121441444E02E49884202D11F
:10C2D0000121CC043EE02C49884202D101210C0509
:10C2E00038E02A49884202D101214C0532E0284930
:10C2F000884206D101214020FFF728FE002140207E
:10C3000013E02449884206D101218020FFF71EFE58
:10C310000021802009E0204988420AD184150121AA
:10C320002046FFF713FE00212046BDE81040FFF72E
:10C330000DBE1A49884202D101210C040AE01849B5
:10C34000884202D101214C0404E0164988420AD1F6
:10C3500001218C042046FFF711FE2046BDE8104065
:10C360000021FFF70BBE10BD002C0140000400406F
:10C3700000080040000C0040001000400014004085
:10C3800000340140004C0140005001400054014085
:10C3900000180040001C0040002000400040014008
:10C3A000004401400048014002460020138A92895F
:10C3B0000B4202EA010202D0002A00D0012070479D
:10C3C000002A828901D00A4300E08A4382817047B3
:10C3D00030B5028C22F001020284028C8388048B27
:10C3E00022F0020224F073050C882C430D891543BA
:10C3F0004A882A43114DA8420BD0114DA84208D0BB
:10C40000104DA84205D0104DA84202D00F4DA842B1
:10C410000DD122F008054A8923F440732A4322F003
:10C4200004058A882A438D891D43CB892B43838049
:10C430000483C9888186028430BD0000002C01403D
:10C4400000340140004001400044014000480140E8
:10C4500070B5028C22F010020284028C8488038B57
:10C460000D8823F4E6464FF6FF7303EA05253543AE
:10C470000E8922F0200203EA061616434A8803EAD0
:10C4800002123243104EB04202D0104EB04215D1CB
:10C4900022F080064A8924F4406403EA02123243FF
:10C4A00022F040068A8803EA021232438E8903EAA8
:10C4B00086062643CC8903EA8404344384800583BA
:10C4C000C9880187028470BD002C014000340140FE
:10C4D00070B5028C22F480720284028C8488838B73
:10C4E0000D8823F073031D4322F400730E894FF669
:10C4F000FF7202EA06261E434B8802EA03233343F7
:10C50000104EB04202D0104EB04215D123F4006656
:10C510004B8924F4405402EA0323334323F4806616
:10C520008B8802EA032333438E8902EA06162643E8
:10C53000CC8902EA0414344384808583C9888187C6
:10C54000038470BD002C01400034014070B5028CA2
:10C5500022F480520284048C8288838B0D8823F419
:10C56000E6464FF6FF7303EA0525354324F40056EB
:10C570000C8903EA043434434E8803EA0636264322
:10C58000094CA04202D0094CA04205D122F48044BB
:10C590008A8903EA8212224382808583C988A0F8AF
:10C5A0004010068470BD0000002C014000340140A2
:10C5B00030B502881B4B1C4C98420DD0A0420BD0CA
:10C5C000B0F1804F08D0194DA84205D0184DA842AF
:10C5D00002D0184DA84203D122F070054A882A43A0
:10C5E000154DA84206D0154DA84203D022F440753F
:10C5F000CA882A4302808A8882850A8802859842EE
:10C600000AD0A04208D00E4A904205D00D4A90426E
:10C6100002D00D4A904201D1097A0186012181821E
:10C6200030BD0000002C01400034014000040040F7
:10C6300000080040000C00400010004000140040C2
:10C6400000400140004401400048014070B5134CD7
:10C6500040F225552946204601F04DF901280CD11C
:10C660002946204601F019F90D4D286828B12046C9
:10C6700001F0CEF92968C0B288470821204601F0B0
:10C6800033F9012808D10821204601F003F920469A
:10C69000BDE8704001F0BCB970BD0000004C004026
:10C6A000AC00002070B5134C40F2255529462046B9
:10C6B00001F021F901280CD12946204601F0EDF8BE
:10C6C0000D4D286828B1204601F0A2F92968C0B2B2
:10C6D00088470821204601F007F9012808D10821E0
:10C6E000204601F0D7F82046BDE8704001F090B92F
:10C6F00070BD000000500040B800002010B50121BE
:10C700008CB00846FFF70AFC104C2046FEF746FFA7
:10C710000F4800900F480021CDE901011020CDE91C
:10C7200003018020059040000690800007902020A3
:10C7300008900002CDE9090169462046FEF7B8FFDE
:10C7400001212046FEF71EFF0CB010BD080002407C
:10C750004C24014040010020044931F81000AA286F
:10C7600001D90120704700207047000040010020DF
:10C77000102803D2024931F810007047002070479A
:10C780004001002010B586B0FFF7B8FF0121480234
:10C79000FFF7E8FB01210420FFF7E4FB012108205B
:10C7A000FFF7E0FB01211020FFF7DCFB00248DF8F0
:10C7B0001740FF20ADF8140005A95048FFF76CFAA8
:10C7C0000320ADF8140005A94D48FFF765FA3F2096
:10C7D000ADF8140005A94B48FFF75EFA01208DF86B
:10C7E00004008DF805004FF46020CDE902040094A8
:10C7F0001020454C8DF8100069462046FEF7ACFD30
:10C800000723012209212046FEF7CAFD0723022241
:10C8100008212046FEF7C4FD072303220F212046EE
:10C82000FEF7BEFD072304220E212046FEF7B8FDC9
:10C830000723052219462046FEF7B2FD06220723EC
:10C8400011462046FEF7ACFD07231A460521204677
:10C85000FEF7A6FD0723082204212046FEF7A0FDCF
:10C860000723092203212046FEF79AFD07230A2207
:10C8700002212046FEF794FD07230B2201212046CA
:10C88000FEF78EFD07230C2200212046FEF788FDCF
:10C890000D22072311462046FEF782FD07230E22B4
:10C8A0000C212046FEF77CFD07230F220B2120469A
:10C8B000FEF776FD072310220A212046FEF770FDC1
:10C8C00001212046FEF72FFD01212046FEF721FD24
:10C8D0002046FEF79FFD2046FEF736FD0028FAD1E0
:10C8E0002046FEF7A6FD2046FEF727FD0028FAD1D8
:10C8F00001212046FEF793FD06B010BD000801405F
:10C90000000C0140001001400024014008B5012145
:10C910002020FFF727FB0A48016821F08001016011
:10C920008020ADF8000002208DF8020010208DF864
:10C930000300034869460C38FFF7AEF908BD000054
:10C940000C1401401CB54FF48063994213D29A42F3
:10C9500011D21E238DF800308DF80110090A8DF8D0
:10C960000210110A8DF803208DF804106B46032283
:10C97000072100F0D9FE1CBD1CB5012922D80622D2
:10C980008DF80020002211B101290BD012E08DF8A2
:10C9900001208DF80220FF218DF8031003218DF86E
:10C9A000041007E08DF801208DF802208DF8032097
:10C9B0008DF804206B460322072100F0B5FE1E20EF
:10C9C00000F0FEFE1CBD1CB501F2FF3240F2FF7309
:10C9D0009A421AD2002901DCC1F100014FF0200275
:10C9E00089B28DF800208DF801104FEA11218DF8E1
:10C9F000021003DA41F004018DF802106B464FF08B
:10CA000003024FF0050100F08FFE1CBDF8B5494C44
:10CA10002088400403D50E210320FFF729F9208840
:10CA2000800403D50D210320FFF722F9208800049C
:10CA300003D50F210320FFF71BF92088C00403D57D
:10CA40000C210320FFF714F904258DF803502078FA
:10CA5000394E00060AD58020ADF800006946304600
:10CA6000FFF71AF907210020FFF702F920784006A6
:10CA70000AD54020ADF8000069463046FFF70CF9B2
:10CA800006210020FFF7F4F8207880060AD5202040
:10CA9000ADF8000069463046FFF7FEF8052100209A
:10CAA000FFF7E6F82078C0060AD51020ADF80000A0
:10CAB00069463046FFF7F0F804210020FFF7D8F868
:10CAC00020781E4E00070AD50820ADF80000694600
:10CAD0003046FFF7E1F803210220FFF7C9F820787C
:10CAE000400709D5ADF8005069463046FFF7D4F845
:10CAF00002210846FFF7BCF8207880070AD50220FB
:10CB0000ADF8000069463046FFF7C6F80121022063
:10CB1000FFF7AEF82078C0070AD00120ADF800007A
:10CB200069463046FFF7B8F800210220FFF7A0F869
:10CB3000F8BD0000D00000200008014000100140B6
:10CB400007484FF480410160490001600548012118
:10CB5000016002210160082101601021016070471D
:10CB6000100801401014014008B501216520FFF7AD
:10CB7000F9F901211048FFF7E1F8FFF7E1FF102074
:10CB80008DF8030003208DF802008003ADF800004B
:10CB900069460A48FFF780F81B20ADF80000694697
:10CBA0000748FFF779F84FF44050ADF800006946A8
:10CBB0000448FFF771F808BD000430000008014088
:10CBC0000014014000180140FFF7CEBF38B5012125
:10CBD0002020FFF7C7F94FF47040ADF8000048205F
:10CBE0008DF8030069460D48FFF756F80C4C0421F8
:10CBF0002046FFF7CFF801214020FFF7B3F90420CA
:10CC0000ADF8000002208DF8020010208DF803001E
:10CC100069462046FFF740F838BD00000014014087
:10CC20000018014000B5002000F008F8024800217B
:10CC30000170417000BD0000D8000020F0B507462B
:10CC400040210320FFF7A8F800244FF4AF7600211D
:10CC50000520FFF7A1F821460620FFF79DF80025E3
:10CC60003846FFF7C7F83046FEF74CFD6D1CEDB2B5
:10CC7000102DF5D3641CE4B2402CE8D3F0BD0000C5
:10CC800010B5FFF7DDF83D4C402363616420FEF7EB
:10CC90002CFD23616420FEF728FD00210846FFF7E4
:10CCA0007BF800210120FFF777F87B210220FFF7B6
:10CCB00073F800210320FFF76FF800210420FFF72D
:10CCC0006BF800210520FFF767F800210620FFF729
:10CCD00063F800210720FFF75FF800210820FFF725
:10CCE0005BF800210920FFF757F800210A20FFF721
:10CCF00053F800210B20FFF74FF800210C20FFF71D
:10CD00004BF800210D20FFF747F800210E20FFF718
:10CD100043F800210F20FFF73FF800211320FFF711
:10CD20003BF800211420FFF737F800211520FFF70A
:10CD300033F800211620FFF72FF800211720FFF706
:10CD40002BF800211820FFF727F82C211020FFF7DF
:10CD500023F824211220FFF71FF8F8211120FFF7F4
:10CD60001BF802210120FFF717F8002000F067F8F8
:10CD7000FFF758FF8020206110BD00000010014027
:10CD80002DE9FC4700258946824600950195002A39
:10CD900001DA524201250624DFF84C800A276E464C
:10CDA00092FBF7F007FB1020303030551046FEF7AD
:10CDB00019FA4146FEF7D8F9FEF71DFA020003D032
:10CDC000641E64B2002CEBDA1DB1641E64B22D2027
:10CDD000305532194946504600F008F8C4F10700B2
:10CDE000C0B2BDE8FC87000000002041F0B500247F
:10CDF00015460E460746032901D8102F01D90020F9
:10CE0000F0BD42210320FEF7C7FF39460520FEF79B
:10CE1000C3FF3007010E0620FEF7BEFF4FF4AF76CA
:10CE200008E000BFFEF7E6FF3046FEF76BFC641C2F
:10CE3000E4B26D1C28780028F4D12046F0BD08B17A
:10CE4000FB2100E0F8211120FEF7A6BF2DE9F843F1
:10CE50004FF430414FF00060FFF756F84FF4C060D8
:10CE6000FFF748F85C484FF47A7101250068B0FB81
:10CE7000F1F0B0F1807F7DD220F07F414FF0E020D3
:10CE8000491E4161554AF02182F8141D0026866131
:10CE9000072707618DF80160514C8DF802608DF80D
:10CEA000035020784FF00608C00704D08DF80080AA
:10CEB0006846FEF7EDFF2078800704D58DF80070F6
:10CEC0006846FEF7E5FF2078400705D508208DF875
:10CED00000006846FEF7DCFF2078000705D5092032
:10CEE0008DF800006846FEF7D3FF2078C00605D510
:10CEF0000A208DF800006846FEF7CAFF208810F46B
:10CF0000787F05D017208DF800006846FEF7C0FF37
:10CF1000208810F47C4F05D028208DF8000068464A
:10CF2000FEF7B6FF1C208DF800008DF801508DF83B
:10CF300002608DF803506846FEF7AAFF1D208DF8A9
:10CF4000000002208DF801008DF802608DF803507A
:10CF50006846FEF79DFF2348007870B125208DF8C4
:10CF6000000004208DF801008DF802608DF8035058
:10CF7000684600E02FE0FEF78BFF1B48007860B1A9
:10CF800034208DF8000005208DF801008DF8026036
:10CF90008DF803506846FEF77BFF1448007860B1B7
:10CFA00035208DF8000003208DF801008DF8026017
:10CFB0008DF803506846FEF76BFF0C208DF80000DB
:10CFC0008DF801808DF802608DF803506846FEF7F9
:10CFD0005FFFBDE8F883FEE7840000200FE000E07B
:10CFE000D000002098000020A4000020B000002005
:10CFF0002DE9FF4101210820FEF7B4FF01210420A3
:10D00000FEF798FF224840210160802101608515CC
:10D0100005604115016018208DF80F0003208DF880
:10D020000E004FF47070ADF80C00194803A91038C9
:10D03000FEF732FE174F3846FFF7FEF8002445F69C
:10D04000C0500226ADF80400ADF80060ADF8024013
:10D05000ADF806408DF8084069463846FFF7A8FA53
:10D060000D486021018001214180848042F6E06109
:10D07000C180068144818581C48101213846FFF742
:10D08000C6F801213846FFF7CCF8BDE8FF81000063
:10D09000100C0140000800401403002010B5FFF7F9
:10D0A00089F8FFF7D3FEFFF791FDFFF76BFB00F068
:10D0B000C7F9FFF7E5FDFFF787FDFFF799FFFFF7DA
:10D0C000A5FC00F005F8BDE81040FFF71FBC00000C
:10D0D0002DE9F041444C88B0207830B9607820B90F
:10D0E000A07810B9E07800287AD001210220FEF75C
:10D0F00021FF3E4F3846FFF79FF847200025ADF847
:10D1000010004FF6FF76ADF81460ADF81250ADF890
:10D1100016508DF8185004A93846FFF749FAADF8B3
:10D120000850334D2020ADF8000028684FF48038B7
:10D13000404500D33046ADF80600207818B1694666
:10D140003846FFF745F96868404500D33046ADF8EA
:10D150000600607818B169463846FFF779F9A86883
:10D16000404500D33046ADF80600A07818B16946B6
:10D170003846FFF7ADF9E868404500D20646ADF8FD
:10D180000660E07818B169463846FFF7DFF91F21DD
:10D190003846FFF739F8207820B1012202213846BD
:10D1A000FFF70EF9607820B1012204213846FFF71D
:10D1B00007F9A07820B1012208213846FFF700F9CD
:10D1C000E07820B1012210213846FFF7F9F801225A
:10D1D00011463846FFF7F4F801213846FFF717F8F3
:10D1E00008B0BDE8F0810000BC0000200004004051
:10D1F000040300202DE9F047734C01212046FFF77E
:10D20000D3F84FF6FF7648B101212046FEF7FCFF28
:10D210006E48016831440160BDE8F0870221A246F2
:10D220002046FFF7C1F8DFF8A481002708F10408C1
:10D2300008F1180408F10809A4F1080560B30221F7
:10D240005046FEF7E1FFDFF880A120880AF1340A9A
:10D2500070B92888C0B9B8F800002880B9F8000073
:10D2600020805B48016809B100208847208840B1D0
:10D27000BAF800103144AAF800102088401E20801F
:10D28000CAE728880028C7D0BAF800102A881144B5
:10D29000AAF800102F80BFE704215046FFF784F85A
:10D2A00060B304215046FEF7AFFFDFF81CA1608891
:10D2B0000AF1380A70B96888C0B9B8F80200688005
:10D2C000B9F8020060804348016809B1012088472D
:10D2D000608840B1BAF800103144AAF800106088A4
:10D2E000401E608098E76888002895D0BAF8001042
:10D2F0006A881144AAF800106F808DE70821504613
:10D30000FFF752F860B308215046FEF77DFFDFF8C3
:10D31000B8A0A0880AF13C0A70B9A888C0B9B8F8CA
:10D320000400A880B9F80400A0802B48016809B166
:10D3300002208847A08840B1BAF800103144AAF80A
:10D340000010A088401EA08066E7A888002897D01B
:10D35000BAF80010AA881144AAF80010AF805BE761
:10D3600010215046FFF720F8002889D010215046A0
:10D37000FEF74AFFDFF850A0E0880AF1400A70B9D2
:10D38000E888C0B9B8F80600E880B9F80600E0807F
:10D390001248016809B103208847E08840B1BAF813
:10D3A00000103144AAF80010E088401EE08033E706
:10D3B000E888002896D0BAF80010EA881144AAF844
:10D3C0000010EF8028E7000000040040E00000208B
:10D3D000C0000020C4000020C8000020CC000020B5
:10D3E00010B501218CB00846FEF798FD124C20467E
:10D3F000FEF7D4F811480021CDE900011020CDE955
:10D4000002018020CDE904108001CDE908100691C9
:10D4100007910A9169462046FEF74AF90122022146
:10D420002046FEF73DF9054801228021001F00F04B
:10D4300053FA0CB010BD00001C000240044800402C
:10D440002DE9F04F87B0012144F20500FEF78AFD77
:10D450004FF40075ADF800500326A34C8DF8026020
:10D460004FF018098DF8039069462046FEF714FC2A
:10D470002715ADF800704FF0040A8DF803A0694637
:10D480002046FEF709FC99480024DFF86482006812
:10D490000190ADF80C400C20ADF80840ADF80E003E
:10D4A000ADF81440ADF81850ADF80A40ADF8104092
:10D4B000ADF81640ADF81A4005A9404600F0F3F962
:10D4C00001A9404600F04EFA0121404600F0FAF969
:10D4D0008848007828B1012240F22551404600F0EA
:10D4E00029FA0121C804FEF725FD01211120FEF7CC
:10D4F00039FDADF80070BB467F4F8DF80260B04635
:10D500008DF8039069463846FEF7C6FBF814ADF86F
:10D51000000056468DF803A069463846FEF7BCFB6E
:10D520007648DFF8DCA10C2700680190ADF80840D0
:10D53000ADF80C40ADF81440ADF81850ADF80A4005
:10D54000ADF81040ADF80E70ADF81640ADF81A40C9
:10D5500005A9504600F0A7F901A9504600F002FACB
:10D560000121504600F0AEF96648007828B101224A
:10D5700040F22551504600F0DDF901210805FEF783
:10D58000D9FC01213120FEF7EDFC4FF48050ADF8BD
:10D5900000008DF80280C246C8468DF803906946A7
:10D5A0005548FEF779FBADF800608DF803606946D9
:10D5B0005548FEF771FB5548DFF8549105A90068FE
:10D5C0000190ADF80840ADF80C40ADF81440ADF84E
:10D5D0001850ADF80A40ADF81040ADF80E70ADF837
:10D5E0001640ADF81A40484600F05DF94021484623
:10D5F00000F050F901A9484600F0B4F9012148466D
:10D6000000F060F94348007828B1012240F225512A
:10D61000484600F08FF901210820FEF7A3FC012104
:10D620004020FEF79FFC01218804FEF783FCADF843
:10D6300000B08DF802A08DF80380DFF8DC80694629
:10D640004046FEF729FB4FF40060ADF800008DF86E
:10D65000036069464046FEF71FFB3048016821F42D
:10D6600000410160016821F4804101604FF4804075
:10D67000DFF8A880ADF800001026A8F10C088DF89E
:10D68000036069464046FEF707FBF002ADF8000074
:10D690008DF8036069464046FEF7FEFA2048019087
:10D6A000ADF80840ADF81440ADF81850ADF80A4098
:10D6B000ADF80C40ADF81040ADF81640ADF81A408A
:10D6C000184CADF80E7005A9204600F0ECF801A941
:10D6D000204600F047F90121204600F0F3F8FFF75B
:10D6E0007FFE07B0BDE8F08F000801409C000020DD
:10D6F000003801409800002000100140A8000020E0
:10D70000004C0040A400002000140140B4000020A0
:10D7100000500040B0000020000C01400C180140F7
:10D7200040420F00004800402DE9F04F224D2E7876
:10D730006C78771EBC423CD00EB9132C39D0AB4666
:10D740001E4EC4EBC40505EB450909EB0605FF2792
:10D750006F70AF70E870297147186A713A44B24629
:10D76000D7B2C4EBC4060520002206EB4606564499
:10D77000891E0DE006EB000813F802C088F801C00E
:10D7800013F802C0401C6744521C80B2FFB2D2B2F0
:10D790008A42EFDB0544FB436B70401C0AF809002A
:10D7A000641CE0B28BF80100142802D100208BF831
:10D7B0000100BDE8F08F0000DB00002060010020C8
:10D7C0004FF4FA5206E00021401E00BF491C89B206
:10D7D0009142FAD30028F6D1704706E00021401E9E
:10D7E00000BF491C89B20829FAD30028F6D1704736
:10D7F00070B5134C40F225552946204600F07BF8C1
:10D8000001280CD12946204600F047F80D4D286824
:10D8100028B1204600F0FCF82968C0B288470821EA
:10D82000204600F061F8012808D10821204600F0C8
:10D8300031F82046BDE8704000F0EAB870BD000045
:10D8400000380140A000002070B5114C40F2255571
:10D850002946204600F04FF8012809D129462046E4
:10D8600000F01BF8204600F0D3F8C0B2FDF7E6FD4B
:10D870000821204600F038F8012808D10821204668
:10D8800000F008F82046BDE8704000F0C1B870BD57
:10D8900000480040C943018070470A0A01219140B5
:10D8A000C9430180704710B5038A4FF2FF0213404D
:10D8B0000A884C8822438C88C9880C4322431A4327
:10D8C000028210BD0029818902D041F4005101E09B
:10D8D00021F4005181817047002A828A01D00A43D5
:10D8E00000E08A43828270470246002012880A4282
:10D8F00000D00120704730B501F01F02012400253F
:10D90000C1F3421304FA02F2012B0FD0022B0FD005
:10D91000838A4FEA11210088134204FA01F400EAD5
:10D92000040001D000B10125284630BD8389F0E70D
:10D93000038AEEE710B5C1F3421301F01F04012181
:10D94000A140012B07D0022B07D01430002A026817
:10D9500005D00A4304E00C30F8E71030F6E78A43BC
:10D96000026010BD30B50446008A85B00D464CF605
:10D97000FF710840E98801432182A1894EF6F31026
:10D980000140A8882A8910436A890A431043A0816C
:10D99000A08A4FF6FF410840A9890143A182684649
:10D9A000FEF7F8FA1948844201D1039800E0029882
:10D9B000A189090400EBC00101EB0010296801D521
:10D9C000490000E08900B0FBF1F06422B0FBF2F105
:10D9D00009010B096FF018056B4300EB8300A38965
:10D9E0001D044FF0320306D503EBC000B0FBF2F08C
:10D9F00000F0070005E003EB0010B0FBF2F000F0D0
:10DA00000F000843208105B030BD00000038014000
:10DA10008088C0F30800704702E008C8121F08C1E0
:10DA2000002AFAD170477047002001E001C1121F9F
:10DA3000002AFBD1704770B54FF4487422460A2182
:10DA40000720FEF77FFF40F2F235224629460820E4
:10DA5000FEF778FF0A20FFF7B3FE224601210720D8
:10DA6000FEF770FF22462946BDE870400820FEF709
:10DA700069BF000010B50021084600F001FB6420DA
:10DA8000FFF79EFE00F08DFB4FF4C870FFF798FE85
:10DA90001948014600F0F4FA4FF41670FFF790FEB3
:10DAA000FFF7C9FF4FF46170FFF78AFE4FF400746F
:10DAB00022464FF46B710720FEF744FF22465021A7
:10DAC0000820FEF73FFF4FF4FA742046FFF778FE78
:10DAD00000F008FB4FF44870FFF772FE00F061FBA6
:10DAE0006000FFF76DFE0021084600F0C9FA2046ED
:10DAF000FFF766FE10BD00000CFEFFFFFFF7CEFA39
:10DB00006420FFF75DFE01210846FEF735FF012185
:10DB10000220FEF731FF00210520FEF72DFF002136
:10DB20000620FEF729FF00210720FEF725FF002130
:10DB30000820FEF721FF00F034FB4FF47A752846E9
:10DB400005E00420FEF714FEA84207D30A20FFF7E1
:10DB500037FE0220FEF70CFEA842F2D200F0E0FAF7
:10DB6000DFF8ECB34FF4C8774FF4AF7A0026F94CE6
:10DB70004FF4FA784FF44879FEF7C6FA02460021CE
:10DB800060630846FFF7FCF8606B20B301287CD087
:10DB900003287BD00428EFD1206E401C206650451E
:10DBA00075D1EB494046643900F06AFA4A461821BB
:10DBB0000620FEF7C7FE4A4629460820FEF7C2FEA9
:10DBC0004846FFF7FDFD00F0ECFA4FF41670FFF742
:10DBD000F7FD2666D0E7FDF71BFF2064FFF722F86C
:10DBE00001210846226CFFF7CBF8206C0A287AD076
:10DBF00008DCC1D2DFE800F00524274C4F747477AD
:10DC0000777AB9E70F2869D011DC0B287CD00C2873
:10DC100076D00D2875D00E28AED13946584600F082
:10DC20002FFAC820FFF7CCFD3946084635E1102809
:10DC300068D0112867D0122871D065289CD106E1E0
:10DC4000FFF718FF98E70021084600F019FAC820EE
:10DC500009E06169A02901DAA8427DDC394658460D
:10DC600000F00EFA0220FFF7ABFD0120FEF780FD69
:10DC700020600620FEF77CFD60610420FEF778FD41
:10DC8000E0602168A942E9DAE3E7E2E0E1E1F2E1FC
:10DC900000F046FA70E70021084600F0F1F9C820CC
:10DCA00009E06169A02901DAA84255DC59463846E5
:10DCB00000F0E6F90220FFF783FD0120FEF758FD92
:10DCC00020600620FEF754FD60610420FEF750FD41
:10DCD000E0602168A942E9DAE3E704E024E013E028
:10DCE0005846594630E1394608462DE198494046A4
:10DCF000643900F0C5F94FF49670FFF761FDF2E763
:10DD000009E00DE035E056E091495846643100F0F5
:10DD1000B7F9404604E14FF41671481014E16DE084
:10DD20004FF4967148000FE10021084600F0A8F971
:10DD3000C8200AE06169A02901DAA84269DC5946D5
:10DD40004FF4B47000F09CF90220FFF739FD012078
:10DD5000FEF70EFD206000E05BE00620FEF708FD08
:10DD600060610420FEF704FDE0602168A942E6DA64
:10DD7000E0E70021084600F083F9C82009E0616966
:10DD8000A02901DAA84244DC3946584600F078F967
:10DD90000220FFF715FD0120FEF7EAFC20600620B7
:10DDA000FEF7E6FC60610420FEF7E2FCE06021681B
:10DDB000A942E9DAE3E70021084600F061F9C8204A
:10DDC0000AE06169A02901DAA84222DC60493846EC
:10DDD000643900F055F90220FFF7F2FC0120FEF74C
:10DDE000C7FC20600620FEF7C3FC60610420FEF73C
:10DDF000BFFCE0602168A942E8DAE2E700210846BA
:10DE000000F03EF9C82010E06169A02907DAA842B5
:10DE100005DDC8203DE000BFFFF7D2FCACE64C4872
:10DE20005146143800F02CF90220FFF7C9FC0120FC
:10DE3000FEF79EFC20600620FEF79AFC606104203D
:10DE4000FEF796FCE0602168A942E8DADCE70A20E8
:10DE5000E2E726666666FDF7D9FC02460221A0636A
:10DE60000846FEF78DFFA06B062875D005DCD5D2DD
:10DE7000DFE800F01F5B6175757F09286DD011DC4C
:10DE800007286BD00828C9D14146584600F0F8F859
:10DE90004046FFF795FC3846394600F0F1F84FF45C
:10DEA0009670B9E70A286FD06628B7D14046414638
:10DEB00023E0FDF759FD02460321E0630846FEF723
:10DEC0005FFFE06B032820D00FDCA0B1012817D042
:10DED0000228A3D15946084600F0D2F85FF0C800E6
:10DEE000FFF76EFC59463846D7E7042813D00B28B5
:10DEF00006D0672892D13846394600F0C1F8A6E727
:10DF00004846494600F0BCF875E03946584600F0EE
:10DF1000B7F8484680E75946084600F0B1F8C820EF
:10DF2000FFF74EFC39465846B7E75946084600F019
:10DF3000A7F83846D4E75946084600F0A1F8384615
:10DF4000FFF73EFC5946384600F09AF8384663E73A
:10DF500070FEFFFF0000002017E01FE01BE03946C5
:10DF6000084600F08DF84046FFF72AFC594638462F
:10DF70000DE04249084600F083F84FF42F70FFF798
:10DF80001FFC3E49404688E737E04146084600F01E
:10DF900077F8404640E75946404677E7A06E401C78
:10DFA000A066142827DD00210846A66600F068F860
:10DFB0000A20FFF705FC3149084600F061F8C82047
:10DFC000FFF7FEFB00F08EF82C49084600F058F8E9
:10DFD0004846FFF7F5FB00F0E4F82849084600F052
:10DFE0004FF84046FFF7ECFB2449404600F048F864
:10DFF0004FF4967025E014200EE7E06E401CE066BA
:10E000001428F8DD00210846E66600F039F80A20F9
:10E01000FFF7D6FB4146084600F032F8C820FFF76C
:10E02000CFFBFFF708FD4146084600F029F84846B7
:10E03000FFF7C6FB00F0B5F84146084600F020F8AF
:10E040003846FFF7BDFB0021084600F019F86420B0
:10E05000E2E6206E401C206650450CD14146074840
:10E0600000F00EF84A4629460520FEF76BFC182101
:10E070004A460720A2E50120CEE600000CFEFFFF85
:10E0800070B54FF48066164C721ED5436B1CB042BF
:10E09000C4E9160101DBA26502E0A84200DCA36529
:10E0A000B14201DBE26502E0A94200DCE36534F83D
:10E0B000580F01B20120FEF786FCA088404201B251
:10E0C0000220FEF780FC208801B20320FEF77BFCD3
:10E0D000A088BDE87040404201B20420FEF773BC46
:10E0E0000000002070B54FF42F744FF46175224684
:10E0F00029460520FEF726FC22468C210620FEF745
:10E1000021FC1220FFF75CFB224629460520FEF782
:10E1100019FC2246BDE870408C210620FEF712BC97
:10E1200070B500210846FFF7ABFF6420FFF748FBFE
:10E1300000F037F84FF4C870FFF742FB4FF4FA7461
:10E1400021460846FFF79CFF4FF42F70FFF738FB7E
:10E15000FFF7C8FF4FF46170FFF732FB4FF4007513
:10E160002A4664210520FEF7EDFB2A464FF46B7129
:10E170000620FEF7E7FB2046FFF722FBFFF75BFCDC
:10E180004FF44870FFF71CFB00F00BF86000FFF73E
:10E1900017FB00210846FFF773FF2046FFF710FB2F
:10E1A00070BD70B54FF44874224664210520FEF717
:10E1B000C9FB4FF46B75224629460620FEF7C2FBC9
:10E1C000224629460720FEF7BDFB2246BDE87040E7
:10E1D00050210820FEF7B6BBF8E10008000000203F
:10E1E00040010000BCB2000824E200084001002009
:10E1F000E805000028DA0008016C32082C02040649
:10E2000007112D0102030404150607080984A24A18
:10E2100004791441A3C201B24BA9180153032A2067
:04E2200003000000F7
:040000050800B1310D
:00000001FF
