:020000040800F2
:10B000008808002045B100084DB100084FB1000884
:10B0100051B1000853B1000855B10008000000000C
:10B0200000000000000000000000000057B1000810
:10B0300059B10008000000005BB10008B1C1000870
:10B040005FB100085FB100085FB100085FB10008A0
:10B050005FB100085FB100081BB700086FB70008B8
:10B0600075B700087BB7000881B7000825B5000850
:10B070003DB500085FB100085FB100085FB100088E
:10B080005FB100085FB100085FB100085FB1000860
:10B090005FB100085FB100085FB1000887B7000822
:10B0A0005FB100085FB100085FB100085FB1000840
:10B0B0005FB1000805C200085FB100085FB1000879
:10B0C0005FB100085FB100085FB100085FB1000820
:10B0D0005FB1000831D800085FB1000889D80008C6
:10B0E00021B700085FB100085FB100085FB1000838
:10B0F0005FB100085FB100085FB100085FB10008F0
:10B100005FB100085FB100085FB100085FB10008DF
:10B110004DC60008A5C600085FB100085FB1000871
:10B120005FB100085FB100085FB100085FB10008BF
:10B13000DFF80CD000F0B0F80048004745DB00080D
:10B14000880800200648804706480047FEE7FEE7DB
:10B15000FEE7FEE7FEE7FEE7FEE7FEE7FEE7FEE7C7
:10B16000B5C1000831B1000830B480EA010202F034
:10B17000004530F0004221F0004013D090B1C30DE3
:10B18000D40DC2F31601C0F31600E41A41F4000115
:10B1900040F400027D34914201D3641C00E0490078
:10B1A000002C02DA30BC002070474FF4000000236E
:10B1B000914201D3891A034340084FEA4101F7D174
:10B1C00051B1914202D14FF0004105E002D24FF05F
:10B1D000010101E06FF0010103EBC450284430BCD1
:10B1E00000F022B8C10F80EAE0700844CA07962335
:10B1F000002100F022B800F0004220F00040C10D14
:10B20000C0F3160040F400007F2901DA00207047E7
:10B21000962903DCC1F19601C84001E096398840C7
:10B22000002AF4D0404270470029A8BF7047401C54
:10B23000490008BF20F00100704710B4B0FA80FC4C
:10B2400000FA0CF050EA010404BF10BC704749B189
:10B25000CCF1200421FA04F411FA0CF118BF0121F9
:10B2600021430843A3EB0C01CB1D4FEA00614FEAD9
:10B27000102042BF002010BC704700EBC3501044A8
:10B280000029A4BF10BC7047401C490008BF20F033
:10B29000010010BC70470000064C074D06E0E06856
:10B2A00040F0010394E8070098471034AC42F6D30D
:10B2B000FFF742FF78E3000898E3000870B58C18A8
:10B2C00010F8015B15F0070301D110F8013B2A11BA
:10B2D00006D110F8012B03E010F8016B01F8016BA7
:10B2E0005B1EF9D12B0705D40023521E0DD401F8A3
:10B2F000013BFAE710F8013BCB1A921C03E013F86C
:10B30000015B01F8015B521EF9D5A142D8D30020A0
:10B3100070BD0029816802D041F0010101E021F0F7
:10B320000101816070470029816802D041F4807179
:10B3300001E021F480718160704701460020896836
:10B34000490700D501207047014600208968090798
:10B3500000D501207047000010B542680E4B0C79F3
:10B360001A400B6842EA04221343436083680B4A85
:10B370001340D1E9024222434C7943EA44031A4381
:10B380008260C26A097C22F47002491EC9B242EA94
:10B390000151C16210BD0000FFFEF0FFFDF7F1FF9B
:10B3A00070B5072409290AD9C568A1F10A0606EB78
:10B3B0004606B440A543B3401D43C56007E0056998
:10B3C00001EB4106B440A543B3401D4305611F2373
:10B3D000072A09D2446B521E02EB820293409C431F
:10B3E00091400C43446370BD0D2A09D2046BD21FF7
:10B3F00002EB820293409C4391400C43046370BD76
:10B40000C46A0D3A02EB820293409C4391400C4384
:10B41000C46270BD816841F00801816070470029F5
:10B42000816802D041F4A00101E021F4A001816013
:10B430007047816841F004018160704770B523490D
:10B4400000220B460D790324DB78052D09D2DFE8B5
:10B4500005F003090E121D00FF2801D1012004E0B0
:10B46000CA7070BDFF2808D10220087170BD20B9D4
:10B47000CA700C7170BD032801D00A71F0E7DB1CA3
:10B480008C71CB70042008714A7170BD8E790F4D9C
:10B490004C793435761EB44206DA28551844C87003
:10B4A00004F101044C7170BDFDD16FEA0303DBB2FE
:10B4B000CB70834206D1287820B96878C871086BB0
:10B4C000401C0863CA704A710A7170BD6402002092
:10B4D00030B51048427801788A421AD00E4A136873
:10B4E00043F480431360C1EBC10202EB42040B4BF7
:10B4F0000B4AE5186D1C95621B5D1362D36943F01E
:10B500000103D361491CC9B20170142901D1002182
:10B51000017030BD3B0200200C180140C002002029
:10B520000000024010B5022000F0AAF8002804D064
:10B53000BDE81040012000F019B810BD094810B551
:10B54000016889060DD510214160C16921F0010112
:10B55000C161642002F061F90348016821F480416F
:10B56000016010BD000002400C180140C10002D56E
:10B57000024908607047024948607047040402406D
:10B58000000002400029016802D041F0010102E000
:10B590004FF6FE72114001607047000001684FF6DF
:10B5A000FE72114001600021016041608160C16054
:10B5B0003149314A0839904203D1486840F00F00C0
:10B5C00006E02D4A1432904204D1486840F0F00061
:10B5D00048607047284A2832904203D1486840F4B6
:10B5E0007060F5E7244A3C32904203D1486840F449
:10B5F0007040EDE7204A5032904203D1486840F451
:10B600007020E5E71C4A6432904203D1486840F458
:10B610007000DDE7184A7832904203D1486840F064
:10B620007060D5E7154A111F904203D1086840F0B9
:10B630000F0006E0114A1432904204D1086840F02D
:10B64000F000086070470D4A2832904203D1086824
:10B6500040F47060F5E7094A3C32904203D1086833
:10B6600040F47040EDE7054A50329042EAD1086854
:10B6700040F47020E5E700000800024008040240A2
:10B6800001460020CA0001D5034A00E0034A1268BF
:10B690000A4200D00120704700040240000002402E
:10B6A000002A026801D00A4300E08A430260704722
:10B6B00030B5036847F6F07293430C6A8A682243F8
:10B6C000D1E904452C4322438C692243CC692243AF
:10B6D0004C6A22438C6A22431A430260CA68426061
:10B6E0000A6882604968C16030BD4FF4FA5206E0D2
:10B6F000401E80B20021491C89B29142FBD3002830
:10B70000F6D1704706E0401E80B20021491C89B284
:10B710000829FBD30028F6D17047012000F068B853
:10B7200010B54FF48064204600F052F8C8B96400A8
:10B73000204600F04DF8A0B96400204600F048F81B
:10B7400078B96400204600F043F850B96400204600
:10B7500000F03EF828B96400204600F039F80028CF
:10B7600004D02046BDE8104000F042B810BD0220D1
:10B7700000F03EB8042000F03BB8082000F038B8D4
:10B78000102000F035B810B5202000F021F808B1E5
:10B79000202018E0402000F01BF808B1402012E003
:10B7A000802000F015F808B180200CE04FF4807480
:10B7B000204600F00DF828B96400204600F008F893
:10B7C000002804D02046BDE8104000F011B810BD9C
:10B7D000064A014600201268044B0A4014331B68D5
:10B7E0000B4202D0002A00D0012070470004014023
:10B7F00010B504460348016809B12046884702484D
:10B80000046010BD340200201404014070B509200A
:10B8100000F0AEFF534C20620A2000F0A9FF6062E6
:10B820000B2000F0A5FFA0620C2000F0A1FFE06259
:10B83000052000F09DFF2061072000F099FFA06126
:10B84000226A4FF47A718A420ADA636A8B4216DA04
:10B85000A36A8B4220DAE36A8B4227DA002070BDAC
:10B860008A420ADD636A8B4227DAA36A8B4256DA80
:10B87000E36A8B4241DA012070BD8A421BDA636AB7
:10B880008B4207DDA36A8B4241DAE36A8B4246DAD8
:10B89000022070BD8B4237DAA36A8B4204DDE36A73
:10B8A0008B421DDA032070BD8B4216DAE36A8B42AD
:10B8B00035DD042070BD8A420ADD636A8B4216DDE5
:10B8C000A36A8B422BDAE36A8B4228DA052070BD2B
:10B8D0008A420ADA636A8B4216DAA36A8B421EDD59
:10B8E000E36A8B421BDD062070BD8A420ADD636A73
:10B8F0008B4214DAA36A8B4211DAE36A8B420EDDC3
:10B90000072070BD8A420ADA636A8B4207DDA36AA8
:10B910008B4204DDE36A8B4201DA082070BD2569A1
:10B920004FF4F0739D420CDD8A420ADD656A8D4258
:10B9300007DDA56A8D4204DDE56A8D4201DD09203F
:10B9400070BD98420CDD8A420ADD606A884207DDDC
:10B95000A06A884204DDE06A884201DD0A2070BDE9
:10B96000662070BD0000002010B5012000F000FF2F
:10B97000264C2060022000F0FBFE6060032000F0F7
:10B98000F7FEA060042000F0F3FEE060052000F068
:10B99000EFFE2061216864290ADD6068642819DDF2
:10B9A000A068642822DDE068642828DD002010BD3E
:10B9B0000FDA6168642927DDA168642924DDE16864
:10B9C000642921DDB0F57A7F01DD0B2010BD012057
:10B9D00010BD19DD6068642807DAA068642813DDEB
:10B9E000E068642810DD022010BD0DDDA068642829
:10B9F00004DAE068642807DD032010BD04DDE06898
:10BA0000642801DA042010BD672010BD000000206A
:10BA100010B5012000F0ACFE944C2060022000F034
:10BA2000A7FE6060032000F0A3FEA060042000F0E9
:10BA30009FFEE060052000F09BFE2061062000F0E4
:10BA400097FE6061072000F093FEA061082000F0DF
:10BA50008FFEE061A2684FF47A718A4212DA63685D
:10BA60008B420FDDE3688B420CDD2369962B1EDDD4
:10BA70006369962B1BDAA369962B18DAB42816DAB9
:10BA8000012010BDE3688B4211DA23688B420EDD82
:10BA90008A4222DD2369962B1FDA6369962B1CDD0F
:10BAA000A369962B19DAB42817DA022010BD23688F
:10BAB0008B4212DA63688B420FDDE3688B4223DD31
:10BAC0002369962B20DA6369962B1DDAA369962BDE
:10BAD0001ADDB42818DA032010BD63688B4211DA2E
:10BAE00023688B421FDD8A4232DD2369962B1CDAE4
:10BAF0006369962B19DAA369962B16DAB42814DD3C
:10BB0000042010BD8B420EDD8A421EDD2369962B78
:10BB10000BDD6369962B08DAA369962B05DAB42846
:10BB200003DD052010BD8A420FDDE3688B420CDD8A
:10BB30002369962B09DD6369962B06DDA369962B95
:10BB400003DAB42801DA062010BD23688B421FDD1A
:10BB5000E3688B420CDD2369962B09DA6369962B27
:10BB600006DDA369962B03DDB42801DA072010BD9A
:10BB700063688B420CDD2369962B09DA6369962B87
:10BB800014DAA369962B63DDB42861DD082010BDAB
:10BB90002369962B09DD6369962B12DAA369962B2C
:10BBA00031DDB42820DA092010BD09DA6369962B4B
:10BBB00029DDA369962B1FDAB42824DD0A2010BDE5
:10BBC00016DD6369962B0BDDA369962B03DAB42887
:10BBD00019DD0B2010BD16DDB42814DA0C2010BDC1
:10BBE00011DAA369962B0EDDB4280CDD0D2010BDF3
:10BBF00009DA6369962B06DDA369962B03DDB42869
:10BC000001DD0E2010BD23688B4214DA63688B427D
:10BC100007DA2369962B04DA6369962B01DA0F2081
:10BC200010BDE3688B4206DA2369962B03DAB42849
:10BC300001DA102010BD63688B4209DA8A4213DAF8
:10BC40006269962A06DAA269962A03DA112010BDE3
:10BC50008A4209DAE2688A4206DAA169962903DA99
:10BC6000B42801DA122010BD652010BD00000020AC
:10BC700010B58A0721F003040649130F21440F224F
:10BC80008C689A4094438C608A68984002438A602A
:10BC900010BD000000000140F0B5CA78002502F098
:10BCA0000F03D20601D58A7813430A784FF00F0E9E
:10BCB00012F0FF0F4FF001021CD004680F8802FA47
:10BCC00005F63740B74211D14FEA850C0EFA0CF752
:10BCD00024EA070703FA0CF43C43CF78282F02D05C
:10BCE000482F02D002E0466100E006616D1C082D7D
:10BCF000E4D304600C88FF2C1ED944685FF0000672
:10BD000006F1080702FA07F50F882F40AF420FD15E
:10BD10004FEA860C0EFA0CF7BC4303FA0CF73C43CF
:10BD2000CF78282F00D14561CF78482F00D1056109
:10BD3000761C082EE4D34460F0BD0000F0B5144C2E
:10BD4000002801DAE36900E06368420D120185B260
:10BD5000C0F301579540C0F30346032F05D0C2023C
:10BD60000AD50322B240934307E023F07062636870
:10BD700023F07063636002E0AB4343F0706201B193
:10BD80002A43002801DAE261F0BD6260F0BD0000E4
:10BD9000000001404161704770B5154A0E464FF4EE
:10BDA00080740146146000BF00BF00BF4FF40070F4
:10BDB000106000BF00BF00BF4FF400601060431070
:10BDC000136000BF00BF00BF094D2D1F286000BFDA
:10BDD00000BF00BF084600F025F900BF00BF00BF4C
:10BDE000304600F01FF900BF00BF00BF2C6070BDDF
:10BDF0001414014030B511494FF480750D6000BF37
:10BE000000BF00BF0D4C4FF40072241F226000BF22
:10BE100000BF00BF4FF400620A6053100B6000BF08
:10BE200000BF00BF226000BF00BF00BF00F0FAF8F3
:10BE300000BF00BF00BF256030BD000014140140EA
:10BE400008B50121102000F08DF80121202000F01C
:10BE500089F80D494FF48070086010208DF80300B8
:10BE600003208DF80200C020ADF8000069460748A5
:10BE7000FFF712FF4FF47060ADF80000024869460A
:10BE80001038FFF709FF08BD1014014000100140F1
:10BE900070B50F23C47801780122F4B1144C2468E2
:10BEA000457804F4E064C4F5E064240AC4F10406AF
:10BEB000E3408478B5401C402C4301F1E02123018C
:10BEC00081F80034007800F01F018A4040098000AA
:10BED00000F1E020C0F8002170BD01F01F00824099
:10BEE0004809800000F1E020C0F8802170BD00000A
:10BEF0000CED00E002490843024908607047000069
:10BF00000000FA050CED00E0024A1140014302482E
:10BF10000160704780FFFF1F08ED00E0044A002920
:10BF2000516901D0014300E0814351617047000035
:10BF300000100240044A0029D16901D0014300E009
:10BF40008143D1617047000000100240044A00297B
:10BF5000116901D0014300E0814311617047000085
:10BF600000100240044A0029916901D0014300E019
:10BF7000814391617047000000100240044A00298B
:10BF8000D16801D0014300E08143D16070470000D7
:10BF90000010024030B51F494A6812F00C031E4AD7
:10BFA00003D0042B01D0082B21D002604A680F2354
:10BFB0001A4C03EA1212A35C0268DA4042604B6832
:10BFC000072505EA1323E35C22FA03F383604B6839
:10BFD00005EAD323E35CDA40C2604968032303EA3D
:10BFE0009131231F595CB2FBF1F1016130BD4A6808
:10BFF0004B6802F470124FF0020413F4803F04EB1C
:10C00000924202D04B689B0301D5054B00E0024BE6
:10C010005A43CAE70010024000127A00D301002000
:10C0200000093D0070B50D4B00211C15DA141D1FD1
:10C030001A60060601D52C6000E01C6000BF00BF3E
:10C0400000BF2A604006000E00BF00BF00BF491CB1
:10C05000C9B20829ECD32A602C6070BD14140140C9
:10C060000CB50021264801910091026842F480320B
:10C0700002604FF4A063026802F400320092019A59
:10C08000521C0192009A12B9019A9A42F3D10268A5
:10C09000920333D5012100911A490A6842F0100237
:10C0A0000A600A6822F003020A600A6842F002028B
:10C0B0000A604168416041684160416841F48061C3
:10C0C0004160416821F47C114160416841F4E8110C
:10C0D0004160016841F08071016001688901FCD50F
:10C0E000416821F003014160416841F00201416073
:10C0F0004168C1F381010229FAD10CBD00910CBD48
:10C10000001002400020024070B50F2000F030FB0C
:10C11000264C2063012000F01FFBA0B30025052062
:10C1200000F01AFB05430220656400F015FB58B3CC
:10C130000025062000F010FB05430320A56400F055
:10C140000BFB30B30025072000F006FB054304205D
:10C15000E56400F001FBF0B10025082000F0FCFAD6
:10C1600005432565E16C606C0844A16C28440844D3
:10C170006065216BA1F2D172B2F5C77F0FD802289A
:10C180000BDB002070BD00E001E00125C7E70125C1
:10C19000CFE70125D7E70125DFE70120F2E7B1F579
:10C1A000FA6F01DC0320EDE70420EBE7000000203C
:10C1B000FFF78EB90F4810B5016841F00101016029
:10C1C00041680D4A1140416001680C4A114001600C
:10C1D000016821F480210160416821F4FE01416081
:10C1E0004FF41F018160FFF73BFF05494FF00060EE
:10C1F000086010BD001002400000FFF8FFFFF6FECF
:10C2000008ED00E001F002B8C9430182704700293F
:10C21000018802D041F0010101E021F0010101801B
:10C220007047002930F8441F02D041F4004101E07A
:10C23000C1F30E01018070474B4910B5884202D10D
:10C240000121C41486E0B0F1804F09D047498842EB
:10C250000DD101210220FFF779FE0021022064E0C8
:10C2600001210846FFF772FE002101205DE04049F0
:10C27000884206D101210420FFF768FE0021042036
:10C2800053E03C49884206D101210820FFF75EFEB9
:10C290000021082049E03849884206D101211020B8
:10C2A000FFF754FE002110203FE03449884206D1B8
:10C2B00001212020FFF74AFE0021202035E03049EF
:10C2C000884202D10121441444E02E49884202D11F
:10C2D0000121CC043EE02C49884202D101210C0509
:10C2E00038E02A49884202D101214C0532E0284930
:10C2F000884206D101214020FFF728FE002140207E
:10C3000013E02449884206D101218020FFF71EFE58
:10C310000021802009E0204988420AD184150121AA
:10C320002046FFF713FE00212046BDE81040FFF72E
:10C330000DBE1A49884202D101210C040AE01849B5
:10C34000884202D101214C0404E0164988420AD1F6
:10C3500001218C042046FFF711FE2046BDE8104065
:10C360000021FFF70BBE10BD002C0140000400406F
:10C3700000080040000C0040001000400014004085
:10C3800000340140004C0140005001400054014085
:10C3900000180040001C0040002000400040014008
:10C3A000004401400048014002460020138A92895F
:10C3B0000B4202EA010202D0002A00D0012070479D
:10C3C000002A828901D00A4300E08A4382817047B3
:10C3D00030B5028C22F001020284028C8388048B27
:10C3E00022F0020224F073050C882C430D891543BA
:10C3F0004A882A43114DA8420BD0114DA84208D0BB
:10C40000104DA84205D0104DA84202D00F4DA842B1
:10C410000DD122F008054A8923F440732A4322F003
:10C4200004058A882A438D891D43CB892B43838049
:10C430000483C9888186028430BD0000002C01403D
:10C4400000340140004001400044014000480140E8
:10C4500070B5028C22F010020284028C8488038B57
:10C460000D8823F4E6464FF6FF7303EA05253543AE
:10C470000E8922F0200203EA061616434A8803EAD0
:10C4800002123243104EB04202D0104EB04215D1CB
:10C4900022F080064A8924F4406403EA02123243FF
:10C4A00022F040068A8803EA021232438E8903EAA8
:10C4B00086062643CC8903EA8404344384800583BA
:10C4C000C9880187028470BD002C014000340140FE
:10C4D00070B5028C22F480720284028C8488838B73
:10C4E0000D8823F073031D4322F400730E894FF669
:10C4F000FF7202EA06261E434B8802EA03233343F7
:10C50000104EB04202D0104EB04215D123F4006656
:10C510004B8924F4405402EA0323334323F4806616
:10C520008B8802EA032333438E8902EA06162643E8
:10C53000CC8902EA0414344384808583C9888187C6
:10C54000038470BD002C01400034014070B5028CA2
:10C5500022F480520284048C8288838B0D8823F419
:10C56000E6464FF6FF7303EA0525354324F40056EB
:10C570000C8903EA043434434E8803EA0636264322
:10C58000094CA04202D0094CA04205D122F48044BB
:10C590008A8903EA8212224382808583C988A0F8AF
:10C5A0004010068470BD0000002C014000340140A2
:10C5B00030B502881B4B1C4C98420DD0A0420BD0CA
:10C5C000B0F1804F08D0194DA84205D0184DA842AF
:10C5D00002D0184DA84203D122F070054A882A43A0
:10C5E000154DA84206D0154DA84203D022F440753F
:10C5F000CA882A4302808A8882850A8802859842EE
:10C600000AD0A04208D00E4A904205D00D4A90426E
:10C6100002D00D4A904201D1097A0186012181821E
:10C6200030BD0000002C01400034014000040040F7
:10C6300000080040000C00400010004000140040C2
:10C6400000400140004401400048014070B5134CD7
:10C6500040F225552946204601F06DF901280CD1FC
:10C660002946204601F039F90D4D286828B12046A9
:10C6700001F0EEF92968C0B288470821204601F090
:10C6800053F9012808D10821204601F023F920465A
:10C69000BDE8704001F0DCB970BD0000004C004006
:10C6A0000C02002070B5134C40F225552946204657
:10C6B00001F041F901280CD12946204601F00DF97D
:10C6C0000D4D286828B1204601F0C2F92968C0B292
:10C6D00088470821204601F027F9012808D10821C0
:10C6E000204601F0F7F82046BDE8704001F0B0B9EF
:10C6F00070BD0000005000401802002010B501215C
:10C700008CB00846FFF70AFC104C2046FEF746FFA7
:10C710000F4800900F480021CDE901011020CDE91C
:10C7200003018020059040000690800007902020A3
:10C7300008900002CDE9090169462046FEF7B8FFDE
:10C7400001212046FEF71EFF0CB010BD080002407C
:10C750004C240140A0020020044931F81000AA280E
:10C7600001D901207047002070470000A00200207E
:10C77000102803D2024931F810007047002070479A
:10C78000A002002010B586B0FFF7B8FF01214802D3
:10C79000FFF7E8FB01210420FFF7E4FB012108205B
:10C7A000FFF7E0FB01211020FFF7DCFB00248DF8F0
:10C7B0001740FF20ADF8140005A95048FFF76CFAA8
:10C7C0000320ADF8140005A94D48FFF765FA3F2096
:10C7D000ADF8140005A94B48FFF75EFA01208DF86B
:10C7E00004008DF805004FF46020CDE902040094A8
:10C7F0001020454C8DF8100069462046FEF7ACFD30
:10C800000723012209212046FEF7CAFD0723022241
:10C8100008212046FEF7C4FD072303220F212046EE
:10C82000FEF7BEFD072304220E212046FEF7B8FDC9
:10C830000723052219462046FEF7B2FD06220723EC
:10C8400011462046FEF7ACFD07231A460521204677
:10C85000FEF7A6FD0723082204212046FEF7A0FDCF
:10C860000723092203212046FEF79AFD07230A2207
:10C8700002212046FEF794FD07230B2201212046CA
:10C88000FEF78EFD07230C2200212046FEF788FDCF
:10C890000D22072311462046FEF782FD07230E22B4
:10C8A0000C212046FEF77CFD07230F220B2120469A
:10C8B000FEF776FD072310220A212046FEF770FDC1
:10C8C00001212046FEF72FFD01212046FEF721FD24
:10C8D0002046FEF79FFD2046FEF736FD0028FAD1E0
:10C8E0002046FEF7A6FD2046FEF727FD0028FAD1D8
:10C8F00001212046FEF793FD06B010BD000801405F
:10C90000000C0140001001400024014008B5012145
:10C910002020FFF727FB0A48016821F08001016011
:10C920008020ADF8000002208DF8020010208DF864
:10C930000300034869460C38FFF7AEF908BD000054
:10C940000C14014000F058BD1CB54FF480639942AF
:10C9500013D29A4211D21E238DF800308DF80110A7
:10C96000090A8DF80210110A8DF803208DF80410C1
:10C970006B460322072100F0F7FE1CBD1CB5012900
:10C9800022D806228DF80020002211B101290BD0F7
:10C9900012E08DF801208DF80220FF218DF80310A0
:10C9A00003218DF8041007E08DF801208DF8022096
:10C9B0008DF803208DF804206B460322072100F038
:10C9C000D3FE1E2000F01CFF1CBD1CB501F2FF327F
:10C9D00040F2FF739A421AD2002901DCC1F1000132
:10C9E0004FF0200289B28DF800208DF801104FEA37
:10C9F00011218DF8021003DA41F004018DF80210C4
:10CA00006B464FF003024FF0050100F0ADFE1CBD78
:10CA1000024908600249012008707047FC010020AB
:10CA2000F8010020F8B5494C2088400403D50E21B8
:10CA30000320FFF71DF92088800403D50D21032072
:10CA4000FFF716F92088000403D50F210320FFF714
:10CA50000FF92088C00403D50C210320FFF708F943
:10CA600004258DF803502078394E00060AD5802021
:10CA7000ADF8000069463046FFF70EF907210020A7
:10CA8000FFF7F6F8207840060AD54020ADF8000000
:10CA900069463046FFF700F906210020FFF7E8F865
:10CAA000207880060AD52020ADF80000694630467F
:10CAB000FFF7F2F805210020FFF7DAF82078C0062A
:10CAC0000AD51020ADF8000069463046FFF7E4F8BB
:10CAD00004210020FFF7CCF820781E4E00070AD56D
:10CAE0000820ADF8000069463046FFF7D5F803216D
:10CAF0000220FFF7BDF82078400709D5ADF80050B7
:10CB000069463046FFF7C8F802210846FFF7B0F83B
:10CB1000207880070AD50220ADF80000694630462B
:10CB2000FFF7BAF801210220FFF7A2F82078C0072A
:10CB30000AD00120ADF8000069463046FFF7ACF896
:10CB400000210220FFF794F8F8BD00003002002019
:10CB5000000801400010014007484FF48041016087
:10CB6000490001600548012101600221016008219E
:10CB7000016010210160704710080140101401404D
:10CB800008B501216520FFF7EDF901211048FFF7F5
:10CB9000D5F8FFF7E1FF10208DF8030003208DF892
:10CBA00002008003ADF8000069460A48FFF774F8F8
:10CBB0001B20ADF8000069460748FFF76DF84FF4F9
:10CBC0004050ADF8000069460448FFF765F808BD1D
:10CBD000000430000008014000140140001801402A
:10CBE000FFF7CEBF38B501212020FFF7BBF94FF486
:10CBF0007040ADF8000048208DF8030069460D48EC
:10CC0000FFF74AF80C4C04212046FFF7C3F8012136
:10CC10004020FFF7A7F90420ADF8000002208DF8AE
:10CC2000020010208DF8030069462046FFF734F813
:10CC300038BD0000001401400018014000B500207C
:10CC400000F008F8024800210170417000BD0000AA
:10CC500038020020F0B5074640210320FFF79CF87A
:10CC600000244FF4AF7600210520FFF795F8214608
:10CC70000620FFF791F800253846FFF7BBF830464D
:10CC8000FEF740FD6D1CEDB2102DF5D3641CE4B22F
:10CC9000402CE8D3F0BD000010B5FFF7D1F83D4CB3
:10CCA000402363616420FEF720FD23616420FEF7CA
:10CCB0001CFD00210846FFF76FF800210120FFF757
:10CCC0006BF87B210220FFF767F800210320FFF7B4
:10CCD00063F800210420FFF75FF800210520FFF72B
:10CCE0005BF800210620FFF757F800210720FFF727
:10CCF00053F800210820FFF74FF800210920FFF723
:10CD00004BF800210A20FFF747F800210B20FFF71E
:10CD100043F800210C20FFF73FF800210D20FFF71A
:10CD20003BF800210E20FFF737F800210F20FFF716
:10CD300033F800211320FFF72FF800211420FFF70C
:10CD40002BF800211520FFF727F800211620FFF708
:10CD500023F800211720FFF71FF800211820FFF704
:10CD60001BF82C211020FFF717F824211220FFF7C1
:10CD700013F8F8211120FFF70FF802210120FFF727
:10CD80000BF8002000F067F8FFF758FF80202061C3
:10CD900010BD0000001001402DE9FC470025894628
:10CDA000824600950195002A01DA524201250624A7
:10CDB000DFF84C800A276E4692FBF7F007FB102045
:10CDC000303030551046FEF70DFA4146FEF7CCF9EB
:10CDD000FEF711FA020003D0641E64B2002CEBDAF5
:10CDE0001DB1641E64B22D2030553219494650469B
:10CDF00000F008F8C4F10700C0B2BDE8FC870000ED
:10CE000000002041F0B5002415460E4607460329D0
:10CE100001D8102F01D90020F0BD42210320FEF7D8
:10CE2000BBFF39460520FEF7B7FF3007010E06208D
:10CE3000FEF7B2FF4FF4AF7608E000BFFEF7DAFF6F
:10CE40003046FEF75FFC641CE4B26D1C28780028B5
:10CE5000F4D12046F0BD08B1FB2100E0F8211120FB
:10CE6000FEF79ABF2DE9F8434FF430414FF00060D0
:10CE7000FFF74AF84FF4C060FFF73CF85C484FF406
:10CE80007A7101250068B0FBF1F0B0F1807F7DD2AE
:10CE900020F07F414FF0E020491E4161554AF021CA
:10CEA00082F8141D00268661072707618DF801604E
:10CEB000514C8DF802608DF8035020784FF0060831
:10CEC000C00704D08DF800806846FEF7E1FF2078A7
:10CED000800704D58DF800706846FEF7D9FF2078EA
:10CEE000400705D508208DF800006846FEF7D0FF02
:10CEF0002078000705D509208DF800006846FEF768
:10CF0000C7FF2078C00605D50A208DF800006846C6
:10CF1000FEF7BEFF208810F4787F05D017208DF82B
:10CF200000006846FEF7B4FF208810F47C4F05D05F
:10CF300028208DF800006846FEF7AAFF1C208DF817
:10CF400000008DF801508DF802608DF8035068469E
:10CF5000FEF79EFF1D208DF8000002208DF80100D5
:10CF60008DF802608DF803506846FEF791FF234864
:10CF7000007870B125208DF8000004208DF80100A4
:10CF80008DF802608DF80350684600E02FE0FEF750
:10CF90007FFF1B48007860B134208DF80000052029
:10CFA0008DF801008DF802608DF803506846FEF799
:10CFB0006FFF1448007860B135208DF80000032021
:10CFC0008DF801008DF802608DF803506846FEF779
:10CFD0005FFF0C208DF800008DF801808DF8026055
:10CFE0008DF803506846FEF753FFBDE8F883FEE76F
:10CFF000E40100200FE000E030020020F8010020F2
:10D0000004020020100200202DE9FF410121082028
:10D01000FEF7A8FF01210420FEF78CFF22484021E3
:10D0200001608021016085150560411501601820AF
:10D030008DF80F0003208DF80E004FF47070ADF8DE
:10D040000C00194803A91038FEF726FE174F384682
:10D05000FFF7F2F8002445F6C0500226ADF80400B0
:10D06000ADF80060ADF80240ADF806408DF808401C
:10D0700069463846FFF79CFA0D486021018001217E
:10D080004180848042F6E061C180068144818581CF
:10D09000C48101213846FFF7BAF801213846FFF76D
:10D0A000C0F8BDE8FF810000100C014000080040FE
:10D0B0007404002010B5FFF77DF8FFF7D3FEFFF7EB
:10D0C00091FDFFF75FFB00F0DBF9FFF7E5FDFFF7F0
:10D0D00087FDFFF799FFFFF7A5FC00F005F8BDE815
:10D0E0001040FFF713BC00002DE9F041444C88B01C
:10D0F000207830B9607820B9A07810B9E07800289D
:10D100007AD001210220FEF715FF3E4F3846FFF787
:10D1100093F847200025ADF810004FF6FF76ADF8E4
:10D120001460ADF81250ADF816508DF8185004A9DF
:10D130003846FFF73DFAADF80850334D2020ADF8E2
:10D14000000028684FF48038404500D33046ADF8E1
:10D150000600207818B169463846FFF739F9686843
:10D16000404500D33046ADF80600607818B16946F6
:10D170003846FFF76DF9A868404500D33046ADF852
:10D180000600A07818B169463846FFF7A1F9E868AB
:10D19000404500D20646ADF80660E07818B1694611
:10D1A0003846FFF7D3F91F213846FFF72DF82078CE
:10D1B00020B1012202213846FFF702F9607820B140
:10D1C000012204213846FFF7FBF8A07820B10122A4
:10D1D00008213846FFF7F4F8E07820B10122102149
:10D1E0003846FFF7EDF8012211463846FFF7E8F818
:10D1F00001213846FFF70BF808B0BDE8F0810000C8
:10D200001C02002000040040640400202DE9F047C7
:10D21000734C01212046FFF7C7F84FF6FF7648B15F
:10D2200001212046FEF7F0FF6E480168314401609D
:10D23000BDE8F0870221A2462046FFF7B5F8DFF8E7
:10D24000A481002708F1040808F1180408F108096E
:10D25000A4F1080560B302215046FEF7D5FFDFF8C0
:10D2600080A120880AF1340A70B92888C0B9B8F8BA
:10D2700000002880B9F8000020805B48016809B1EF
:10D2800000208847208840B1BAF800103144AAF83D
:10D2900000102088401E2080CAE728880028C7D0B8
:10D2A000BAF800102A881144AAF800102F80BFE7AE
:10D2B00004215046FFF778F860B304215046FEF78A
:10D2C000A3FFDFF81CA160880AF1380A70B96888EA
:10D2D000C0B9B8F802006880B9F80200608043481D
:10D2E000016809B101208847608840B1BAF8001090
:10D2F0003144AAF800106088401E608098E7688872
:10D30000002895D0BAF800106A881144AAF80010D5
:10D310006F808DE708215046FFF746F860B308217B
:10D320005046FEF771FFDFF8B8A0A0880AF13C0A6A
:10D3300070B9A888C0B9B8F80400A880B9F804008A
:10D34000A0802B48016809B102208847A08840B11D
:10D35000BAF800103144AAF80010A088401EA0803E
:10D3600066E7A888002897D0BAF80010AA88114468
:10D37000AAF80010AF805BE710215046FFF714F8C1
:10D38000002889D010215046FEF73EFFDFF850A05C
:10D39000E0880AF1400A70B9E888C0B9B8F8060018
:10D3A000E880B9F80600E0801248016809B103205E
:10D3B0008847E08840B1BAF800103144AAF800105C
:10D3C000E088401EE08033E7E888002896D0BAF86D
:10D3D0000010EA881144AAF80010EF8028E7000046
:10D3E000000400404002002020020020240200200F
:10D3F000280200202C02002070B50446074D09E0E9
:10D400002846641C00F028FB8021284600F08CFA96
:10D410000028F9D021780029F2D170BD00380140F0
:10D4200010B501218CB00846FEF778FD124C20465D
:10D43000FEF7B4F811480021CDE900011020CDE934
:10D4400002018020CDE904108001CDE90810069189
:10D4500007910A9169462046FEF72AF90122022126
:10D460002046FEF71DF9054801228021001F00F02B
:10D4700053FA0CB010BD00001C00024004480040EC
:10D480002DE9F04F87B0012144F20500FEF76AFD57
:10D490004FF40075ADF800500326A34C8DF80260E0
:10D4A0004FF018098DF8039069462046FEF7F4FB0B
:10D4B0002715ADF800704FF0040A8DF803A06946F7
:10D4C0002046FEF7E9FB99480024DFF864820068F3
:10D4D0000190ADF80C400C20ADF80840ADF80E00FE
:10D4E000ADF81440ADF81850ADF80A40ADF8104052
:10D4F000ADF81640ADF81A4005A9404600F0F3F922
:10D5000001A9404600F04EFA0121404600F0FAF928
:10D510008848007828B1012240F22551404600F0A9
:10D5200029FA0121C804FEF705FD01211120FEF7AB
:10D5300019FDADF80070BB467F4F8DF80260B04614
:10D540008DF8039069463846FEF7A6FBF814ADF84F
:10D55000000056468DF803A069463846FEF79CFB4E
:10D560007648DFF8DCA10C2700680190ADF8084090
:10D57000ADF80C40ADF81440ADF81850ADF80A40C5
:10D58000ADF81040ADF80E70ADF81640ADF81A4089
:10D5900005A9504600F0A7F901A9504600F002FA8B
:10D5A0000121504600F0AEF96648007828B101220A
:10D5B00040F22551504600F0DDF901210805FEF743
:10D5C000B9FC01213120FEF7CDFC4FF48050ADF8BD
:10D5D00000008DF80280C246C8468DF80390694667
:10D5E0005548FEF759FBADF800608DF803606946B9
:10D5F0005548FEF751FB5548DFF8549105A90068DE
:10D600000190ADF80840ADF80C40ADF81440ADF80D
:10D610001850ADF80A40ADF81040ADF80E70ADF8F6
:10D620001640ADF81A40484600F05DF940214846E2
:10D6300000F050F901A9484600F0B4F9012148462C
:10D6400000F060F94348007828B1012240F22551EA
:10D65000484600F08FF901210820FEF783FC0121E4
:10D660004020FEF77FFC01218804FEF763FCADF843
:10D6700000B08DF802A08DF80380DFF8DC806946E9
:10D680004046FEF709FB4FF40060ADF800008DF84E
:10D69000036069464046FEF7FFFA3048016821F40E
:10D6A00000410160016821F4804101604FF4804035
:10D6B000DFF8A880ADF800001026A8F10C088DF85E
:10D6C000036069464046FEF7E7FAF002ADF8000055
:10D6D0008DF8036069464046FEF7DEFA2048019067
:10D6E000ADF80840ADF81440ADF81850ADF80A4058
:10D6F000ADF80C40ADF81040ADF81640ADF81A404A
:10D70000184CADF80E7005A9204600F0ECF801A900
:10D71000204600F047F90121204600F0F3F8FFF71A
:10D720007FFE07B0BDE8F08F00080140FC0100203B
:10D7300000380140F80100200010014008020020DC
:10D74000004C00400402002000140140140200209C
:10D750000050004010020020000C01400C18014055
:10D7600040420F00004800402DE9F04F224D2E7836
:10D770006C78771EBC423CD00EB9132C39D0AB4626
:10D780001E4EC4EBC40505EB450909EB0605FF2752
:10D790006F70AF70E870297147186A713A44B246E9
:10D7A000D7B2C4EBC4060520002206EB4606564459
:10D7B000891E0DE006EB000813F802C088F801C0CE
:10D7C00013F802C0401C6744521C80B2FFB2D2B2B0
:10D7D0008A42EFDB0544FB436B70401C0AF80900EA
:10D7E000641CE0B28BF80100142802D100208BF8F1
:10D7F0000100BDE8F08F00003B020020C0020020C5
:10D800004FF4FA5206E00021401E00BF491C89B2C5
:10D810009142FAD30028F6D1704706E00021401E5D
:10D8200000BF491C89B20829FAD30028F6D17047F5
:10D8300070B5134C40F225552946204600F07BF880
:10D8400001280CD12946204600F047F80D4D2868E4
:10D8500028B1204600F0FCF82968C0B288470821AA
:10D86000204600F061F8012808D10821204600F088
:10D8700031F82046BDE8704000F0EAB870BD000005
:10D88000003801400002002070B5114C40F22555CF
:10D890002946204600F04FF8012809D129462046A4
:10D8A00000F01BF8204600F0D3F8C0B2FDF7C6FD2B
:10D8B0000821204600F038F8012808D10821204628
:10D8C00000F008F82046BDE8704000F0C1B870BD17
:10D8D00000480040C943018070470A0A0121914075
:10D8E000C9430180704710B5038A4FF2FF0213400D
:10D8F0000A884C8822438C88C9880C4322431A43E7
:10D90000028210BD0029818902D041F4005101E05A
:10D9100021F4005181817047002A828A01D00A4394
:10D9200000E08A43828270470246002012880A4241
:10D9300000D00120704730B501F01F0201240025FE
:10D94000C1F3421304FA02F2012B0FD0022B0FD0C5
:10D95000838A4FEA11210088134204FA01F400EA95
:10D96000040001D000B10125284630BD8389F0E7CD
:10D97000038AEEE710B5C1F3421301F01F04012141
:10D98000A140012B07D0022B07D01430002A0268D7
:10D9900005D00A4304E00C30F8E71030F6E78A437C
:10D9A000026010BD30B50446008A85B00D464CF6C5
:10D9B000FF710840E98801432182A1894EF6F310E6
:10D9C0000140A8882A8910436A890A431043A0812C
:10D9D000A08A4FF6FF410840A9890143A182684609
:10D9E000FEF7D8FA1948844201D1039800E0029862
:10D9F000A189090400EBC00101EB0010296801D5E1
:10DA0000490000E08900B0FBF1F06422B0FBF2F1C4
:10DA100009010B096FF018056B4300EB8300A38924
:10DA20001D044FF0320306D503EBC000B0FBF2F04B
:10DA300000F0070005E003EB0010B0FBF2F000F08F
:10DA40000F000843208105B030BD000000380140C0
:10DA50008088C0F308007047C1F3080181807047D7
:10DA600002E008C8121F08C1002AFAD170477047A7
:10DA7000002001E001C1121F002AFBD1704770B5E0
:10DA80004FF44874224618210720FEF75DFF4FF43B
:10DA90007A75224629460820FEF756FF0A20FFF72E
:10DAA000AFFE224618210720FEF74EFF22462946E8
:10DAB000BDE870400820FEF747BF000010B5002108
:10DAC000084600F0A9FB6420FFF79AFE00F036FC40
:10DAD0004FF4C870FFF794FE1948014600F09CFB14
:10DAE0004FF41670FFF78CFEFFF7C9FF4FF461701B
:10DAF000FFF786FE4FF4007422464FF42071072092
:10DB0000FEF722FF22464FF4C0710820FEF71CFFEB
:10DB10004FF4FA742046FFF773FE00F0AFFB4FF4AA
:10DB20004870FFF76DFE00F009FC6000FFF768FE2B
:10DB30000021084600F070FB2046FFF761FE10BD93
:10DB40000CFEFFFFFFF7B6FA6420FFF759FE012134
:10DB50000846FEF713FF01210220FEF70FFF002108
:10DB60000520FEF70BFF00210620FEF707FF00212E
:10DB70000720FEF703FF00210820FEF7FFFE00F05C
:10DB8000DDFB4FF47A752846FFF73AFE4FF4165046
:10DB9000FEF73EFFFE48FEF7D5FE0220FEF7E8FD49
:10DBA000A84208D30420FEF7E3FDA84203D30A20CD
:10DBB000FFF726FEF1E700F07FFBF5480B30FEF79C
:10DBC000C1FEF34CDFF8CCB34FF4C8774FF4AF7A13
:10DBD0000026C03C4FF4FA784FF44879FEF794FAE7
:10DBE0000246002160630846FFF7D6F8606B40B339
:10DBF00001286ED003286DD00428EFD1E4483E38C8
:10DC0000FEF7A0FE206E401C206650457ED1E14903
:10DC10004046643900F000FB4A4618210620FEF712
:10DC200093FE4A4629460820FEF78EFE4846FFF737
:10DC3000E7FD00F083FB4FF41670FFF7E1FD266669
:10DC4000CCE7D3481830FEF77DFEFDF7E1FE2064F7
:10DC5000FEF7F4FF01210846226CFFF79DF8206CC7
:10DC60000A2871D008DCB9D2DFE800F0052C355D58
:10DC70006493969DA0A7B1E70F287CD015DC0B28F4
:10DC80007AD00C2879D00D2878D00E28A6D1C0489B
:10DC90009730FEF757FE3946584600F0BDFAC820C7
:10DCA000FFF7AEFD394608467FE1102867D01128FE
:10DCB00066D0122865D0652890D1B548BB30FEF7F4
:10DCC00041FEAFE1B2482230FEF73CFEFFF7F6FE20
:10DCD00084E73CE181E2AE482B30FEF733FE0021C1
:10DCE000084600F099FAC82009E06169A02901DA24
:10DCF000A84270DC3946584600F08EFA0220FFF741
:10DD00007FFD0120FEF734FD206000E07BE206206D
:10DD1000FEF72EFD60610420FEF72AFDE060216819
:10DD2000A942E7DAE1E79A483430FEF70BFE00F04B
:10DD3000C3FA53E796483D30FEF704FE002108463B
:10DD400000F06AFAC8200AE046E06169A02901DA19
:10DD5000A842CEDC5946384600F05EFA0220FFF7B2
:10DD60004FFD0120FEF704FD20600620FEF700FDB8
:10DD70006061042006E04DE031E03BE042E070E00D
:10DD800095E0BBE0FEF7F4FCE0602168A942E1DA2F
:10DD9000DBE77F48463001E07D484F30FEF7D2FD9B
:10DDA0005846594680E17A48583001E07848613059
:10DDB000FEF7C8FD3946084676E175486A30FEF739
:10DDC000C1FD74494046643900F026FA4FF496705C
:10DDD000FFF716FDEEE79CE06D487330E8E76C480E
:10DDE0007C30FEF7AFFD6B495846643100F014FA01
:10DDF000404634E166488530FEF7A4FD4FF41671C5
:10DE0000481051E162488E30FEF79CFD4FF4967148
:10DE1000480049E15E48A030FEF794FD0021084625
:10DE200000F0FAF9C8200AE06169A02901DAA842E5
:10DE30006FDC59464FF4B47000F0EEF90220FFF7A2
:10DE4000DFFC0120FEF794FC20600620FEF790FC2A
:10DE500060610420FEF78CFCE0602168A942E8DAEA
:10DE6000E2E74B48A930FEF76DFD0021084600F0BF
:10DE7000D3F9C82009E06169A02901DAA84248DC89
:10DE80003946584600F0C8F90220FFF7B9FC0120D6
:10DE9000FEF76EFC20600620FEF76AFC606104203D
:10DEA000FEF766FCE0602168A942E9DAE3E738485A
:10DEB000B230FEF747FD0021084600F0ADF9C8205A
:10DEC0000AE06169A02901DAA84222DC314938461A
:10DED000643900F0A1F90220FFF792FC0120FEF75F
:10DEE00047FC20600620FEF743FC60610420FEF73B
:10DEF0003FFCE0602168A942E8DAE2E70021084639
:10DF000000F08AF9C82010E06169A02907DAA84268
:10DF100005DDC82045E000BFFFF772FC5EE61D4846
:10DF20005146143800F078F90220FFF769FC01200F
:10DF3000FEF71EFC20600620FEF71AFC606104203C
:10DF4000FEF716FCE0602168A942E8DADCE7266605
:10DF50006666FDF75BFC02460221A0630846FEF7F9
:10DF60001BFFA06B06286FD005DCD7D2DFE800F0DE
:10DF70002C868FA1A4B2092867D01BDC072873D098
:10DF80000828CBD10248C01FFEF7DCFC414603E065
:10DF9000C000002070FEFFFF4FEA0B0000F03CF9CC
:10DFA0004046FFF72DFC3846394600F035F94FF46E
:10DFB0009670B1E70A287BD06628AFD19348FEF768
:10DFC000C1FC404641462BE0FDF7CEFC0246032152
:10DFD000E0630846FEF7E0FEE06B03282AD012DC7F
:10DFE00010B3012823D0022898D188482F38FEF793
:10DFF000A9FC5946084600F00FF9C820FFF700FCBD
:10E0000059463846D1E7042820D00B282DD0672860
:10E0100084D17E48B0F10A00FEF794FC38463946B8
:10E0200000F0FAF80A2077E778484238F4E77748B2
:10E0300039381CE075482638FEF784FC39465846C6
:10E0400000F0EAF8484667E753E063E06F481D38A0
:10E05000FEF778FC5946084600F0DEF8C820FFF7C6
:10E06000CFFB39465846A0E74DE068481438FEF724
:10E0700069FC4846494600F0CFF87CE06448FEF76A
:10E0800061FC5946084600F0C7F83846B6E76048D4
:10E09000C01DFEF757FC5946084600F0BDF838464B
:10E0A000FFF7AEFB5946384600F0B6F8384633E77E
:10E0B00063E057480E3001E055481530FEF742FC4A
:10E0C0003946084600F0A8F84046FFF799FB594644
:10E0D000384614E04E481C30FEF734FC4D490846E3
:10E0E00000F09AF84FF42F70FFF78AFB4949404639
:10E0F0005BE747482330FEF725FC4146084600F021
:10E100008BF8404608E742482A30FEF71BFC594688
:10E11000404643E73E481838FEF714FCA06E401C0A
:10E12000A066142827DD00210846A66600F074F8D2
:10E130000A20FFF765FB3749084600F06DF8C82054
:10E14000FFF75EFB00F09AF83249084600F064F8E9
:10E150004846FFF755FB00F0F1F82E49084600F05D
:10E160005BF84046FFF74CFB2A49404600F054F864
:10E170004FF4967029E01420CEE625481238FEF7B9
:10E18000E1FBE06E401CE0661428F4DD0021084647
:10E19000E66600F041F80A20FFF732FB41460846E8
:10E1A00000F03AF8C820FFF72BFBFFF768FC414668
:10E1B000084600F031F84846FFF722FB00F0BEF8B1
:10E1C0004146084600F028F83846FFF719FB0021C1
:10E1D000084600F021F864209EE60D480C38FEF752
:10E1E000B1FB206E401C206650450CD141460948C9
:10E1F00000F012F84A4629460520FEF7A5FB182133
:10E200004A46072010E5012086E60000C6010020EE
:10E21000880000200CFEFFFF70B54FF48066164C9E
:10E22000721ED5436B1CB042C4E9160101DBA26526
:10E2300002E0A84200DCA365B14201DBE26502E036
:10E24000A94200DCE36534F8580F01B20120FEF763
:10E25000BCFBA088404201B20220FEF7B6FB20883A
:10E2600001B20320FEF7B1FBA088BDE87040404238
:10E2700001B20420FEF7A9BB0000002070B54FF4E6
:10E2800048744FF47A75224629460520FEF75CFB58
:10E29000224618210620FEF757FB0A20FFF7B0FAA6
:10E2A000224629460520FEF74FFB2246BDE8704076
:10E2B00018210620FEF748BB70B500210846FFF77D
:10E2C000ABFF6420FFF79CFA00F038F84FF4C870F9
:10E2D000FFF796FA4FF4FA7421460846FFF79CFFC1
:10E2E0004FF42F70FFF78CFAFFF7C8FF4FF4487513
:10E2F0002846FFF785FA4FF4007632464FF4C07196
:10E300000520FEF721FB32464FF420710620FEF770
:10E310001BFB2046FFF774FAFFF7B1FB2846FFF717
:10E320006FFA00F00BF86000FFF76AFA0021084668
:10E33000FFF772FF2046FFF763FA70BD70B54FF428
:10E3400048744FF4C075224629460520FEF7FCFAB2
:10E350004FF42076224631460620FEF7F5FA224693
:10E3600031460720FEF7F0FA22462946BDE8704004
:10E370000820FEF7E9BA000098E30008000000203A
:10E38000A0020000BCB2000878E40008A00200204F
:10E39000E805000070DA0008016C32083E42594777
:10E3A0003031062A32062B5A53062A59061D3130BF
:10E3B0003030074B3032074B3033072B30341C7969
:10E3C00015390E49151B303223100B5379737465C0
:10E3D0006D696E6974100D5169616E7368616E6765
:10E3E0007461691C5A616907147869613D5A54580F
:10E3F000544E4909193B2909396E3912295B19090B
:10E400003A4C563909691269362909391B5B44317E
:10E41000121A4436792D6909592D1924491219A067
:10E42000596C59512975491239BB1909166572720F
:10E430006F721D4A4344528F3A30093A519A391348
:10E440002937491C192E5925DA342549424C42599D
:10E45000470945020406082D0102030404250607A6
:10E46000080984A24A04891531A3C201B24BA91834
:08E470000153032A2003000000
:040000050800B1310D
:00000001FF
